:020000040800F2
:10000000E8CC0020390300087F6100080D53000888
:100010007D61000887140008C98E000800000000F8
:10002000000000000000000000000000790200084D
:100030006918000800000000D50200086778000871
:100040005303000853030008530300085303000838
:1000500053030008530300086B18000853030008FB
:1000600053030008711800087718000853030008AC
:100070005303000853030008530300085303000808
:1000800053030008530300085303000853030008F8
:100090008914000853030008530300087D18000862
:1000A000530300086979000853030008530300084C
:1000B00053030008530300085303000853030008C8
:1000C00053030008530300085303000853030008B8
:1000D00053030008817E000853030008217F0008B5
:1000E0005303000853030008530300085303000898
:1000F000530300085303000853030008A114000829
:100100005303000853030008530300085303000877
:100110005303000853030008530300085303000867
:1001200053030008F91400080515000853030008DC
:100130005303000853030008530300085303000847
:100140009514000853030008530300088161000858
:10015000C9170008D5170008E11700085303000865
:100160005303000853030008530300085303000817
:100170005303000853030008530300080000000065
:10018000530300085303000800F002F800F065F87C
:100190000AA090E8000C82448344AAF10107DA45E2
:1001A00001D100F05AF8AFF2090EBAE80F0013F0CF
:1001B000010F18BFFB1A43F00103184708FD0000A8
:1001C00028FD00000A444FF0000C10F8013B13F02A
:1001D000070408BF10F8014B1D1108BF10F8015BA0
:1001E000641E05D010F8016B641E01F8016BF9D193
:1001F00013F0080F1EBF10F8014BAD1C0C1B09D1EA
:100200006D1E58BF01F801CBFAD505E014F8016B5B
:1002100001F8016B6D1EF9D59142D6D370470000ED
:100220000023002400250026103A28BF78C1FBD8FF
:10023000520728BF30C148BF0B6070471FB50FF091
:1002400031F99DE8030000F01FFB00F0D9FA1FBD53
:1002500010B5002000F064FB10BD00F0F6FB114665
:10026000FFF7ECFF0DF026FA00F018FC03B4FFF7DF
:10027000EFFF03BC00F076FB2C4B19680868B0E870
:10028000F04F80F30988BFF36F8F4FF0000080F3C9
:10029000118870470000000008480068006880F37B
:1002A00008884FF0000080F3148862B661B6BFF38F
:1002B0004F8FBFF36F8F00DF00BF00BF08ED00E07E
:1002C000DFF80C00016841F470010160704700BF65
:1002D00088ED00E0EFF30980BFF36F8F134B1A68CE
:1002E0001EF0100F08BF20ED108A20E9F04F1060BB
:1002F00009B44FF0500080F31188BFF34F8FBFF364
:100300006F8F0EF0EFFA4FF0000080F3118809BCF8
:1003100019680868B0E8F04F1EF0100F08BFB0EC85
:10032000108A80F30988BFF36F8F70472000002088
:10033000EFF30580704700000948804709480047EF
:10034000FEE7FEE7FEE7FEE7FEE7FEE7FEE7FEE785
:10035000FEE7FEE704480549054A064B70470000E2
:100360000579000889010008E88C0020E8CC00200D
:10037000E8AC0020E8AC00209FED1A1AF5EE000A68
:1003800040EE010ABDEEE00AF5EEC00A10EE100ADA
:10039000F1EE10FA38BF401E00EE100A1349F7EED6
:1003A000001AB8EEC00A30EEC00ADFED0F0A20EEE8
:1003B000200AFCEEC00A10EE900AC0F3080000EE1E
:1003C000900A01EB8000F8EE600A90ED011A70EEE1
:1003D000600A90ED000A71EEE01A21EE800A00EE4C
:1003E000810A704783F9223E0000004498F6000815
:1003F000DFED190AB5EEC00A60EE200ABDEEE01A84
:1004000011EE100AF1EE10FA38BF401E00EE100A8D
:100410001349F7EE001AB8EEC00A30EEC00ADFED5D
:100420000F0A60EE200ABCEEE00A10EE100AC0F3DC
:10043000080000EE100A01EB8000B8EE400A90EDD3
:10044000011A70EEC00A90ED000A71EEE01A21EE7A
:10045000800A00EE810A704783F9223E00000044C2
:1004600098F6000870B5064600F0EEF9056806F14A
:100470000B0020F00704B4429CBF002070BD2B4647
:100480006A68BAB11068A04210D304F1080188422A
:100490003CBF5068586007D351681019416011681B
:1004A000091B016058601460101D70BD134652682E
:1004B000002AE7D12146284600F0D2F90028DED1F3
:1004C00070BD70B50446051F00F0BEF90068002C31
:1004D00014BF446870BD002C18BFAC423CBF20461E
:1004E0006468F8D301680A18AA4218BF456003D1AE
:1004F0002A6805461144016028684119A1421CBFC1
:100500006C6070BD6168696021680844286070BDD6
:1005100053EA020C00F069802DE9F04B4FF0000621
:10052000002B1FBFB3FA83F503FA05F424FA05F68E
:100530005E4012BF1643B2FA82F502FA05F4C5F125
:1005400020051EBF22FA05FC44EA0C04203556EAB9
:10055000044C4FEA144418BF641C4FF000084FF0DD
:100560000009904271EB030C39D3002919BFB1FA8D
:1005700081F701FA07F6B0FA80F700FA07F6C7F13B
:1005800020071EBF20FA07FC46EA0C062037B6FB00
:10059000F4FCA7EB0507103F07F01F0BCBF120067B
:1005A0000CFA0BFB2CFA06F644BFB3460026202FAC
:1005B000A4BF5E464FF0000B5BEA060C08BF4FF08D
:1005C000010B19EB0B09ABFB027C48EB0608C01BC7
:1005D00006FB02CC0BFB03CC71EB0C01C1E70B4615
:1005E000024641464846BDE8F08B13B54FF0000087
:1005F0004FF00001AFF30080BDE81C4070472DE9CB
:10060000F041074615460E461020FFF72BFF040069
:100610000AD06760C4E9026500F01AF90168216038
:1006200004600020BDE8F0810120FBE710B5431C09
:1006300002E010F8011B71B18107FAD14FF00132CD
:1006400002C88C1A8C4314EAC211F9D0C01A0A06E7
:1006500003D0C01E10BDC01A10BD0A0401D0801EF8
:1006600010BD0902FCD0401E10BD032A40F23080AC
:1006700010F0030C00F0158011F8013BBCF1020FE3
:10068000624498BF11F801CB00F8013B38BF11F864
:10069000013BA2F1040298BF00F801CB38BF00F87B
:1006A000013B11F0030300F02580083AC0F00880F8
:1006B00051F8043B083A51F804CBA0E80810F5E7DC
:1006C000121D5CBF51F8043B40F8043BAFF30080BF
:1006D000D20724BF11F8013B11F801CB48BF11F834
:1006E000012B24BF00F8013B00F801CB48BF00F804
:1006F000012B704710B5203AC0F00B80B1E81850BC
:10070000203AA0E81850B1E81850A0E81850BFF4FB
:10071000F5AF5FEA027C24BFB1E81850A0E818509A
:1007200044BF18C918C0BDE810405FEA827C24BFEE
:1007300051F8043B40F8043B08BF7047D20728BF7C
:1007400031F8023B48BF11F8012B28BF20F8023BCB
:1007500048BF00F8012B704702F0FF0343EA032271
:1007600042EA024200F002B84FF000020429C0F051
:10077000128010F0030C00F01B80CCF1040CBCF1D3
:10078000020F18BF00F8012BA8BF20F8022BA1EB25
:100790000C0100F00DB85FEAC17C24BF00F8012B0A
:1007A00000F8012B48BF00F8012B70474FF0000202
:1007B00000B5134694469646203922BFA0E80C5057
:1007C000A0E80C50B1F12001BFF4F7AF090728BF32
:1007D000A0E80C5048BF0CC05DF804EB890028BFAE
:1007E00040F8042B08BF704748BF20F8022B11F0D7
:1007F000804F18BF00F8012B704770477047704753
:1008000070B5064C7C44064D7D4403E020682044CE
:100810008047241DAC42F9D170BD0000DCF6000019
:10082000ECF600002DE9F04117460E46054633B1BF
:1008300007FB0354E41B2046B047A542FAD1A5F1BB
:100840000800BDE8F0810000004870477C8C002063
:1008500000487047AC8C0020704770477047704765
:1008600038B504460A4600206946AFF300800028E8
:1008700008BF38BD02460099204600F085F80120E7
:1008800038BD012000F0A1B8F8B5AFF300800546EF
:1008900000200C46102000BF0646A819A0420DD922
:1008A000324669460020AFF30080070008BF00F021
:1008B0008CF80098A04218BF0546C419FFF7C4FF82
:1008C00005600746F01D20F007004619284600F095
:1008D0000AF8B44208BFF8BDA21B31463868BDE82B
:1008E000F84000F051B800210160C0E901107047E4
:1008F0001020704710B500F043F8006810BD10B527
:10090000044600F03DF8046010BD10B5002000F072
:1009100055F8FFF79DFCBDE81040012000F022B81B
:100920002DE9F0410646FFF793FF8046454613E068
:1009300016B1E068B0420ED120682860D4E9010108
:10094000D8F8007088472046FFF7BBFDD8F80000B4
:10095000B842EBD100E025462C68002CE8D1BDE878
:10096000F081000001491820ABBEFEE7260002001E
:1009700000487047748C002000487047A88C002005
:1009800000487047748C0020034640688C4600285D
:1009900018BF88423CBF03464068F8D31868184423
:1009A000884207D00CF1030020F00700001D411A17
:1009B000521A0146081D0A60FFF783BD10B500F00A
:1009C0007BF8BDE8104000F072B810B500F08CF86C
:1009D000BDE8104000F06BB8AFF3008010B500F038
:1009E0000EF8016919B100220261884701E08068B0
:1009F0008047FFF78AFF000010B5FFF786FF70B54C
:100A000000F048F804680546A4B92020FFF72AFD45
:100A1000040011D0094900202C60C4E900010849F4
:100A2000A1602073206160610649A06109B100F0F6
:100A300083F8E061204670BDFFF767FF000000000B
:100A4000F90900080000000070477546FFF790FFA5
:100A5000AE4605006946534620F00700854618B0AB
:100A600020B5FFF777FCBDE820404FF000064FF0BF
:100A700000074FF000084FF0000B21F00701AC46D3
:100A8000ACE8C009ACE8C009ACE8C009ACE8C009F2
:100A90008D46704700487047B08C002010B5044662
:100AA000AFF300802046BDE81040FFF7DFBB002811
:100AB00001D0FFF757BF704710B5002102A000F02A
:100AC00059F8012010BD0000534947414252543AA1
:100AD0002041626E6F726D616C207465726D696E1B
:100AE0006174696F6E00000010B5012805D0002107
:100AF00003A000F03FF8012010BD09A1F8E70000B5
:100B000053494752544D454D3A204F7574206F66F6
:100B10002068656170206D656D6F7279000000005E
:100B20003A2048656170206D656D6F727920636F42
:100B3000727275707465640010B58820FFF792FCBE
:100B4000002801D00021017010BD802902D808B111
:100B5000017809B100207047012100F8081B704797
:100B600018B100F10802914201D000207047002125
:100B70000170704770B505460C460A2000E06D1CF8
:100B800000F011F835B128780028F8D102E0641C93
:100B900000F009F814B120780028F8D1BDE87040C1
:100BA0000A20AFF3008008B569468DF800000320E5
:100BB000ABBE08BD0149016070470000E08C002019
:100BC000464910B54A6822F440324A604A68436890
:100BD0001A434A6001684A6822F480724A600168D8
:100BE0004A68036942EA03224A6001684A6822F0BF
:100BF00040724A6001684A6883681A434A60016823
:100C00008A6822F400628A6001688A68C3681A43AD
:100C10008A60816A6FF07062D14201688A6822F04E
:100C200070628A6001688A680CD0836A1A438A609D
:100C300001688A6822F040528A6001688A68C36A43
:100C40001A4301E022F040528A6001688A6822F06B
:100C500002028A6001688A68037E42EA43028A606F
:100C600090F82010002901684A680FD042F4006211
:100C70004A6001684A6822F460424A6001684A6832
:100C8000174C436A04EB43331A4301E022F4006239
:100C90004A600168CA6A22F47002CA620168CA6ABC
:100CA000838B104C04EB03531A43CA6201688A68B1
:100CB00022F400728A6001688A6890F8303042EA53
:100CC00043228A6001688A6822F480628A6001682F
:100CD0008A68406942EA8020886010BD0023014094
:100CE00000E0FFFF0000F0FF0BF044B80BF0D8B8B5
:100CF000FFF742BBF0EE400AF5EEC00AF1EE10FA43
:100D000002DDB0EE600A7047B1EE600AFBE700005A
:100D1000002803D09FED020A80ED000A7047000012
:100D200000000000002803D0B3EE060A80ED000AA0
:100D30007047000070B52DED0C8B84B006460C4654
:100D400015469FED990AF0EE408A9FED970AB0EEA6
:100D5000409A9FED950AF0EE40BA9FED930AF0EEAF
:100D6000409A9FED910AB0EE40AA0EB104B11DB9B0
:100D700004B0BDEC0C8B70BD8C48FFF7C9FF8C48EC
:100D8000FFF7D0FF8A48D0ED000A9FED8A1A60EE87
:100D9000810AB0EE600A00F025F9F0EE408A28EEF4
:100DA000A80AF0EE408A8248D0ED000AB0EE001AA0
:100DB00060EE810A9FED7F1A60EE810AB0EE600A54
:100DC00000F010F9B0EE409A29EE090AB0EE409A10
:100DD000DFED790AB7EE000A00EEA80ADFED770A28
:100DE00000EEC90ADFED760A20EE200A754880ED94
:100DF000000A6E4890ED000ADFED730A80EE201ABB
:100E0000B7EE000A31EE000A20EE000A6D48D0ED80
:100E1000000A80EE801A6D4880ED001A94ED000AF9
:100E2000B5EEC00AF1EE10FA0DD194ED010AB5EE5F
:100E3000C00AF1EE10FA06D194ED020AB5EEC00A2E
:100E4000F1EE10FA46D09FED580AB0EE408A00202D
:100E5000019002900390D4ED000A60EEA00A94ED98
:100E6000011AD4ED011A41EE210A94ED021AD4EDD3
:100E7000021A41EE210AB0EE600A00F0A9F8B0EEC5
:100E8000408A94ED000A20EE080A8DED010A94EDE7
:100E9000010A20EE080A8DED020A94ED020A20EE06
:100EA000080A8DED030ADDED010AF1EE600AB0EEED
:100EB000600AFFF719FFF0EE409A9DED031AF0EE7D
:100EC000410A9DED021AB0EE410AFFF70FFFB0EEA6
:100ED00040AA07E09FED340AF0EE409A9FED320AF7
:100EE000B0EE40AA95ED000AB5EEC00AF1EE10FA98
:100EF0000DD195ED010AB5EEC00AF1EE10FA06D15A
:100F000095ED020AB5EEC00AF1EE10FA3CD0B0EE53
:100F1000690A00F067F8B0EE408AB0EE690AFFF7A0
:100F2000E7FEB0EE40DAB0EE4A0A00F05BF8F0EE11
:100F300040AAB0EE4A0AFFF7DBFEB0EE40BA28EE58
:100F40002A0AD5ED010A20EE200AD5ED000A0DEEA1
:100F5000200A68EE0B0A95ED021A00EE810AB0EE47
:100F600040CA95ED010A20EE0B0AD5ED020A0AEE01
:100F7000E00AF0EE40CAF0EE6C0AB0EE4C0AFFF761
:100F8000B5FEF0EE40BA03E09FED070AF0EE40BA7E
:100F9000B0EE4A1AF0EE690AB0EE6B0A30460BF07A
:100FA00067FD00BFE4E6000000000000A40200208E
:100FB000A802002035FA8E3CC1BFAD3B9DF8C53676
:100FC0002F7C1C41AC020020506CC24AB0020020B1
:100FD00010B50BF0FDF9B7EE001AC1EE000AB0EE45
:100FE000600A10BDFFF704BA2DE9F0412DED028B28
:100FF0009AB00546B0EE408A0E4617469846002045
:101000001790189019901490159016904DB146B104
:101010003FB1B8F1000F04D0B5EEC08AF1EE10FA7E
:1010200005D100201AB0BDEC028BBDE8F08196ED31
:10103000000A8DED170A96ED010A8DED180A96ED5E
:10104000020A8DED190A97ED000A8DED140A97ED4D
:10105000010A8DED150A97ED020A8DED160A17AA01
:1010600014A928460BF038FB402104A8FFF79EFB8B
:1010700000200090019002900390002417A904A87A
:101080000DF0C6F800BF30E004A800EB041090EDAE
:10109000000AD5ED000A20EE200A04A800EB041097
:1010A000D0ED010A95ED011A00EE810A04A800EBCB
:1010B0000410D0ED020A95ED021A00EE810A04A890
:1010C00000EB0410D0ED030A95ED031A00EE810A3F
:1010D00020EE080AF0EE000A80EE201A684600EBC7
:1010E000840080ED001A601CC4B2042CCCDB002408
:1010F00010E005EB840090ED000A684600EB8400E8
:10110000D0ED000A30EE200A05EB840080ED000AE5
:10111000601CC4B2042CECDB28460CF0D7FF012085
:1011200080E7000001221021014801F013BE0000F9
:101130000000024000221021014801F00BBE000017
:10114000000002407047000001221146014801F0F2
:1011500001BE00000004024000220121014801F00C
:10116000F9BD00000004024030B5437804781B024A
:101170001BB2234300EE103A194CB8EEC00AD4ED6E
:10118000010A20EE200A81ED000AC37885781B024F
:101190001BB22B4300EE103AD4ED010AB8EEC00AA0
:1011A00020EE200A81ED010A437904791B021BB26B
:1011B000234300EE103AB8EEC00A20EE200ADFED1D
:1011C000090A81ED020AD0F8060020F07F4000EE07
:1011D000100AB8EE400A20EE200A82ED000A30BD67
:1011E0005002002000401C4270470CF0A0BA0CF0E6
:1011F0000DB8000010B542780378120212B21A43FB
:1012000000EE102A124BB8EEC00AD3ED020A20EE0F
:10121000200A81ED000AC2788478120212B22243B9
:1012200000EE102AD3ED020AB8EEC00A20EE200A22
:1012300081ED010A42790079120212B2024300EEF6
:10124000102AB8EEC00A20EE200A81ED020A10BD75
:101250005002002010B5FFF775FFFFF7C5FF0BF038
:1012600051FD08B1802402E00BF0B8FC04460BF0FD
:1012700017FF10B144F0400010BD0BF0A3FE204357
:1012800010BD00002DE9FC410746002016460D4622
:1012900000900190FFF74EFF922000F0BDF806226B
:1012A0006946122000F09AF8FFF73CFF9DF8010014
:1012B0009DF80010000200B2084300EE100A464CF0
:1012C000B8EEC00AD4ED010A20EE200A85ED000A2E
:1012D0009DF803009DF80210000200B2084300EEE2
:1012E000100AD4ED010AB8EEC00A20EE200A85EDFE
:1012F000010A9DF805009DF80410000200B20843A1
:1013000000EE100AB8EEC00A20EE200A85ED020AAF
:10131000FFF722FF08226946002000F05FF8FFF780
:1013200013FF9DF800000F2830D19DF803009DF8B1
:101330000210000200B2084300EE100AD4ED020AC7
:10134000B8EEC00A20EE200A87ED000A9DF80500DD
:101350009DF80410000200B2084300EE100AD4ED1C
:10136000020AB8EEC00A20EE200A87ED010A9DF8B5
:1013700007009DF80610000200B2084300EE100AB4
:10138000B8EEC00A20EE200A87ED020AFFF7D2FE6F
:10139000A22000F041F802226946222000F01EF847
:1013A000FFF7C0FE9DF800009DF80110C00040EA64
:1013B0005110B0F5806F01DBA0F5006000EE100A5F
:1013C000B4EE001AF8EEC00AB3EE070A00EE810A86
:1013D00086ED000ABDE8FC815002002070B514467D
:1013E0000D4640F0800000F017F806E0552000F0B0
:1013F00013F8641E05F8010BE4B2002CF6D170BDA1
:1014000010B50C4640F0800000F006F8552000F0C2
:1014100003F8207010BD000001B582B04FF47A705F
:101420000090012301AA02A9024803F0B3F89DF835
:1014300004000EBDF40B002002784078D20042EA8E
:1014400050100B4AB0F5806F108002DBA0F50060F1
:101450001080B2F90000B4EE001A00EE100AF8EEA7
:10146000C00AB3EE070A00EE810A81ED000A704758
:101470005002002010B50C46FFF7CEFF2046BDE815
:101480001040FFF7C9BFFEE7014800F05EBE000054
:10149000180A0020014800F058BE0000400A002051
:1014A000124A10B5506800011ED5114B114C586BF3
:1014B00001684FF00060A14202D90E494C3905E0A5
:1014C0000A4CB834A14203D90A495039086006E0F1
:1014D000064C5834A14201D9D06000E090601868F1
:1014E000016841F40071016010BD0000006002401D
:1014F000BC0A002058640240014801F0F5B8000021
:10150000001100202DE9F05FA748A84BA84CC06C43
:10151000A64DA74EA54F0068A449DFF89492DFF8C6
:101520008CA2DFF88CB2DFF884E2A14A483B603439
:1015300018351836303F09F178090AF1300A4FF4AE
:10154000006C0BF1300BAEF1180E884223D997498D
:10155000543926E0A84233D14FF020080AE0504524
:1015600035D1E04606E000BF4FF4001802E000BFAE
:101570004FF0006811EA080F7CD08C49884253D99B
:10158000904205D0984203D0A04201D0A8422FD16A
:101590004FF0200C45E08649A831884203D98349A1
:1015A0005839096805E08249483188428149F8D9AB
:1015B00049689042D0D09842CED0A042CCD0C9E762
:1015C000B042CED0B842CCD04845CAD0C7E7584583
:1015D000CAD07045C8D0DFF8D88108F190084045DE
:1015E000C2D0DFF8C88108F148084045C0D1BBE748
:1015F000B04216D0B84214D0484512D0504510D051
:10160000584509D0704507D069499031884203D0C8
:1016100066494831884202D14FF4001C01E04FF086
:10162000006C62484C382AE06149A831884229D9C7
:10163000904205D0984203D0A04201D0A84202D1E6
:101640004FF0200C19E0B04217D0B84215D04845F1
:1016500013D0504511D0584509D0704507D0544992
:101660009031884203D051494831884203D14FF428
:10167000001C02E095E04FF0006C4C485038C0F878
:1016800000C052E04A494831884227D9904205D0EB
:10169000984203D0A04201D0A84202D14FF0200CC2
:1016A00018E0B04216D0B84214D0484512D0504588
:1016B00010D0584509D0704507D03D499031884237
:1016C00003D03A494831884202D14FF4001C01E06E
:1016D0004FF0006C3748C0F80CC026E0904205D0AF
:1016E000984203D0A04201D0A84202D14FF0200C72
:1016F00018E0B04216D0B84214D0484512D0504538
:1017000010D0584509D0704507D0294990318842FA
:1017100003D026494831884202D14FF4001C01E031
:101720004FF0006C2348C0F808C0234C6078800755
:101730000CD5607820F002006070607840F0040002
:101740006070012211461D4801F004FBA0781C4D79
:1017500080070CD5A07820F00200A070A07840F09F
:101760000400A07001221021284601F0F3FAE0786D
:1017700080070CD5E07820F00200E070E07840F0BF
:101780000400E07001221021284601F0E3FA07F07E
:10179000BBFE6078400704D50A48016841F00101AA
:1017A0000160BDE8F09F0000F40B00205864024087
:1017B00010600240006002402C0100200004024042
:1017C00000000240103C0140014800F08DBF0000C5
:1017D00040100020014800F087BF00006011002089
:1017E000014800F081BF0000E00F002001681823CD
:1017F000CAB2103AB2FBF3F2054B6FF30901032AA8
:101800009B5CC36500D9091D8165084670470000CF
:10181000CCF4000810B5014600208B698A6A4FF0AD
:10182000C07453B1B3F5005F15D072B1012A0CD06A
:10183000022A0AD0032A09D104E01AB1012A06D0EB
:10184000022A03D1C96AC90100D5012010BDC96AA5
:10185000A142FAD010BD002AF7D0012AF2D0022A04
:10186000F3D0032AF3D010BD7047012001F066B910
:10187000082001F063B9102001F060B9202001F0C8
:101880005DB97047002229B101291AD002291BD065
:101890004FF440720E490B6823F440730B600B68E1
:1018A00013430B600A6822F0F8020A600A680223F8
:1018B00003EBC00002430A60086840F4803008600F
:1018C00070474FF48072E5E74FF40072E2E70000E2
:1018D000103C02401348016889050FD5016821F4C6
:1018E00000710160016841F400610160016821F448
:1018F00000610160016841F40071016001684905FF
:101900000FD5016821F480610160016841F48051C4
:101910000160016821F480510160016841F4806137
:1019200001607047003C024008490A6822F4407296
:101930000A600A6842F004020A600A684FF48033C1
:1019400043EA002002430A6070470000103C024056
:10195000064A136823F44073136013681360136816
:1019600043F001031360017070470000103C024017
:10197000094910B50C6824F440740C600C6844F4F8
:1019800040740C600C6844F001040C600260BFF30A
:101990006F8F436010BD0000103C0240074A13687F
:1019A00023F440731360136843F480731360136867
:1019B00043F001031360018070470000103C0240B7
:1019C000074A136823F440731360136843F40073E9
:1019D0001360136843F00103136001607047000057
:1019E000103C024017490868C206174805D5C2696D
:1019F00042F01002C26110220A600A68920605D500
:101A0000C26942F00802C26120220A600A685206D6
:101A100005D5C26942F00402C26140220A600A6828
:101A2000120605D5C26942F00202C26180220A6034
:101A30000A68920705D5C26942F02002C2610220FD
:101A4000086070470C3C0240E817002070B511494F
:101A500004460020C86101F083F906460E4D09E0F6
:101A6000601C07D024B101F07BF9801BA04201D992
:101A7000032070BD2868C003F2D42868C00701D0D5
:101A800001202860286810F0F200F2D0FFF7AAFFCA
:101A9000012070BDE81700200C3C024078B50024FE
:101AA000009490F83C20012A19D0012280F83C20B3
:101AB0000A6807230568092A13D9EE680A3A02EB77
:101AC000420293409E43EE600B788A680A3B03EB28
:101AD00043039A400368DD682A43DA6010E002207D
:101AE00078BD2E6902EB420293409E432E610B7833
:101AF0008A6803EB43039A4003681D692A431A610D
:101B00004A681F23072A13D205686E6B521E02EB28
:101B1000820293409E436E630B790A885B1E92B2E9
:101B200003EB83039A4003685D6B2A435A6327E003
:101B300005680D2A12D22E6BD21F02EB820293404F
:101B40009E432E630B790A88DB1F92B203EB83035B
:101B50009A4003681D6B2A431A6311E0EE6A0D3A3E
:101B600002EB820293409E43EE620B790A880D3BA2
:101B700092B203EB83039A400368DD6A2A43DA6278
:101B8000164B0568144A9D4206D10D68122D03D1EB
:101B9000556845F48005556005689D4218D10B686D
:101BA000102B01D0112B13D1536843F40003536061
:101BB000096810290CD10A490A4A0968B1FBF2F1F7
:101BC00001EB8101490000E0491E00910029FBD191
:101BD00080F83C40002078BD0023014000200140F7
:101BE0001C00002040420F000068C06C704770B5B8
:101BF00004004FF0000503D0206C002610B107E070
:101C0000012070BD204600F01DF8666484F83C6039
:101C1000206CC00610D4206C20F4885040F00200E4
:101C200020642046FEF7CCFF6664206C20F00200A2
:101C300040F00100206400E0012584F83C60284663
:101C400070BD000010B586B0044614216846FEF74A
:101C5000ADFD174B2268002116489A4209D1016850
:101C600041F480710160006800F48070059006B056
:101C700010BD114B9A42FAD1026842F480620260B0
:101C8000006800F4806005900A481438026842F049
:101C900020020260006800F02000059018150090F6
:101CA0000320CDE901016946044800F053FFDEE757
:101CB000002001404438024000220140001402404C
:101CC0002DE9F041044600680D4681684FF0000799
:101CD00049050BD58068C00508D5206C40F0200070
:101CE000206484F83C700120BDE8F08101F038F8F0
:101CF000064613E0681C11D025B101F031F8801BB5
:101D0000A8420BD920680068800707D4206C40F0F7
:101D10000400206484F83C700320E5E72068006834
:101D20008007E7D521686FF012000860206C40F44E
:101D3000007020642068816811F0405F13D1217E1B
:101D400089B9C16A11F4700F02D0806840050AD4C5
:101D5000206C20F480702064206CC00403D4206CBC
:101D600040F0010020640020BEE7000018B500210B
:101D7000009190F83C20012A07D0012280F83C20F5
:101D800002689368DB0702D011E0022018BD936857
:101D900043F0010393602E4A2E4B1268B2FBF3F21C
:101DA00002EB420200E0521E0092002AFBD10268C0
:101DB0009368DB0742D0036C40F20164A34343F411
:101DC0008073036453685B0505D5036C23F40053EB
:101DD00043F480530364036CDB0404D5436C23F0A9
:101DE0000603436400E0416480F83C101A496FF038
:101DF0002203136049680068CA06184906D0884261
:101E000024D1816811F0405F13D01FE08842F8D0E0
:101E1000134A904203D1D1F80423D206F1D0114ADB
:101E2000904213D1D1F8041301F01F011029E8D317
:101E30000CE0816841F08041816007E0016C41F075
:101E400010010164416C41F001014164002018BDA2
:101E50001C00002040420F000023014000200140F0
:101E6000002101400022014090F82020012A07D0E3
:101E7000022A05D0416A41F4802141620120704765
:101E8000006842690A43426100207047F0B590F84B
:101E900020500468A468012D05D0022D03D0416AAA
:101EA00041F4802153E014F0406F01D1E5004BD59F
:101EB000C4F30164022C03D9416A41F4000146E0F5
:101EC0000125A5401D608D684FF4C0739DB1CE689B
:101ED00035434E6845EAC605066803EB0417F5511D
:101EE0004FF4C275076805EB04150E697E51097D34
:101EF000012905D009E00E88CD6845EA4655EBE793
:101F000001684E5946F480764E511179D2F8055049
:101F10004FF4C67641EA0525016806EB04168D519B
:101F20001178D2F801204FF4C47541EA0221026809
:101F300005EB04155151006803EB0411425842F0BF
:101F4000010242500020F0BD416A41F4001141629B
:101F50000120F0BD10B590F82020012A07D0022AF8
:101F600005D0416A41F480214162012010BD3B4807
:101F7000D0F8002242F00102C0F80022D0F800227E
:101F800022F47C52C0F80022D0F800224B6A42EAC8
:101F90000322C0F800220A7D02F01F0301229A40AA
:101FA000D0F81C329343C0F81C32CB69B3B9D0F8D7
:101FB0000C329343C0F80C328C894B6864F31F4396
:101FC0004C6900EBC404C4F840320C890B6864F31C
:101FD0001F434C6900EBC404C4F84432CB69012BA5
:101FE00016D1D0F80C321343C0F80C320C884B6871
:101FF00064F31F434C6900EBC404C4F840320C89FD
:10200000CB6864F31F434C6900EBC404C4F844324A
:102010008B69002BD0F804320ED01343C0F8043281
:102020000B69002BD0F8143208D01343C0F81432D7
:10203000096A012904D008E09343EFE79343F5E7E9
:10204000D0F81C121143C0F81C12D0F8001221F075
:102050000101C0F80012002010BD00000064004023
:10206000704730B590F82040012C05D0022C03D0E9
:10207000416A41F480215DE00468002955D024695B
:10208000A40754D04FF4D874056804EB01142D59FB
:1020900015F00405956005682D594ED0ED08556082
:1020A00005682C5904F00204D4604FF4DA74056812
:1020B00004EB01142D5905F00F05156105682D5924
:1020C000C5F30725956105682C59240C54614FF41C
:1020D000DC72046802EB0112A4581C700468A45856
:1020E000240A5C700468A458240C9C700468A258EC
:1020F000120EDA704FF4DE72046802EB0112A4587B
:102100001C710468A458240A5C710468A458240C47
:102110009C710468A258120EDA71006881B10169DD
:1021200041F020010161002030BDE468A8E7416A68
:1021300041F400114162012030BD6D0D1560AFE723
:10214000C16841F02001C160EDE72DE9F05F05466F
:10215000006800244669D0F804908768D0F80CB075
:10216000D0F810A0D0F81880F10748D0F90714D0A3
:1021700001218160B80703D5284600F08AFA0CE0F7
:10218000780702D54FF4006407E0380702D54FF412
:10219000805402E0284600F07BFAF80516D529683D
:1021A0004FF480708860B80503D5284600F073FAB4
:1021B0000CE0780502D544F4005407E0380502D558
:1021C00044F4804402E0284600F064FAF80316D58F
:1021D00029684FF480308860B80303D5284600F0A2
:1021E0005CFA0CE0780302D544F4004407E03803BD
:1021F00002D544F4803402E0284600F04DFA30075E
:1022000007D55FEACB6004D52968102044F4007438
:10221000C86070074FF0080707D55FEA0B7004D558
:102220002868C760284600F099F9B00706D52868E5
:10223000C068800702D0284600F092F9700607D5E2
:102240005FEACA6004D52968102044F480640861FC
:10225000B00607D55FEA0A7004D5286807612846EA
:1022600000F0E6F9F00606D528680069800702D07C
:10227000284600F0DEF9B00308D55FEAC96005D54D
:10228000296810204860284600F0D4F9F00307D5EB
:102290005FEA097004D528684760284600F0FEF917
:1022A000300446D55FEA497040D5F00504D55FEAB1
:1022B000C87001D044F00104B00504D55FEA88700D
:1022C00001D544F00204700504D55FEA487001D5D9
:1022D00044F00404300529D518F0700F26D008F01A
:1022E0007000402815D006DC102809D020280AD01C
:1022F000302816D10AE050280ED0602811D10EE007
:1023000044F008040DE044F010040AE044F0200416
:1023100007E044F0400404E044F0800401E044F4A9
:1023200080742868816921F0700181612968042026
:102330004860002C05D0686A204368622846FFF791
:102340008FFEBDE8F09F70B5040003D094F8200024
:1023500010B104E0012070BD204600F081F8206833
:10236000016841F00101016000F0FAFC0546052614
:1023700004E000F0F5FC401B0A2811D820684068F2
:10238000C007F6D02068016821F00201016000F06A
:10239000E7FC05460BE000F0E3FC401B0A2806D9E9
:1023A000606A40F40030606284F82060D2E7206800
:1023B00040688007EFD4207E0128206801683DD066
:1023C00021F080010160607E01282068016838D01A
:1023D00021F040010160A07E01282068016833D00F
:1023E00021F020010160E07E0128206801682ED0E4
:1023F00041F010010160207F01282068016829D088
:1024000021F008010160607F01282068016824D064
:1024100021F004010160D4E902010843D4E9041267
:10242000114308436168491E08432168C8610020C0
:102430006062012084F82000002070BD41F080011E
:10244000C0E741F04001C5E741F02001CAE721F0B3
:102450001001CFE741F00801D4E741F00401D9E7CA
:10246000F0B587B0044614216846FEF79FF9364B55
:102470003648DFF8D0E01968D4F800C0334A0325A5
:102480000226092710300024491CF44522D1196086
:10249000012907D1016841F000710160006800F076
:1024A00000700590106840F0080010601068CDE9D9
:1024B000005600F00800CDE9047069462448CDE9D3
:1024C000024500F047FB00220621142000F0BEFF69
:1024D000142032E0DFF87CE0F44530D1D0F800C0C1
:1024E0004CF0806CC0F800C0D0F800C001290CF09E
:1024F000806CCDF814C0196007D1016841F00071FB
:102500000160006800F000700590106840F0020063
:102510001060106802AB00F0020005906020CDE969
:10252000000683E8B00069460B4800F013FB002268
:102530000621402000F08AFF402000F079FF07B01C
:10254000F0BD00000064004004000020303802406C
:10255000000C024000680040000402407047000088
:10256000304910B588425BD12F4B304A0021FFF72C
:1025700078FD2E4840F205220068A0F20521904225
:1025800038D00FDC081D1DD0012823D0022829D007
:10259000032845D12548244A03217C3807F032FB23
:1025A00004200BE001292DD0FE2933D0FF2937D19B
:1025B0001E481D497C3807F0B5FB1320BDE81040CC
:1025C00006F0A0BC1948184A00217C3807F01AFB15
:1025D0000120F3E71548144A01217C3807F012FB6B
:1025E0000220EBE71148104A02217C3807F00AFB71
:1025F0000320E3E70D480C4A00217C3807F014FB68
:102600000920DBE70948084A01217C3807F00CFB68
:102610000A20D3E7054804497C3807F074FBCCE76F
:1026200010BD0000180A002020010020447F002077
:10263000704770477047000070B5044690F820005E
:10264000012804D0606A40F40020606218E0022093
:1026500084F820002068016821F00101016000F089
:102660007FFB05460EE000BF00F07AFB401B0A2806
:1026700008D9606A40F400306062052084F82000C8
:10268000012070BD20684068C007EDD1606270BD58
:10269000704770477047704770477047704710B574
:1026A000040002D0607910B106E0012010BD0020C6
:1026B0002071204600F004F801206071002010BD58
:1026C00008B500680649884208D10648016841F407
:1026D00080510160006800F48050009008BD000047
:1026E00000300240303802402DE9F84304464FF0F4
:1026F0000009CDF8009063484FF41651A56D0068AD
:10270000B0FBF1F72E6894F85C10082000FA01F194
:1027100031420FD021680A6852070BD50A6822F0AF
:1027200004020A6094F85C108840A860606D40F074
:102730000100606594F85C104FF0010808FA01F0A0
:10274000304208D021684969090604D5A860606D47
:1027500040F00200606594F85C100420884030422C
:1027600008D021680968890704D5A860606D40F029
:102770000400606594F85C1010208840304218D046
:1027800021680968090714D5A86020680168490311
:1027900004D50068000308D5A16C07E00168C905ED
:1027A00003D4016821F008010160216C09B12046C1
:1027B000884794F85C1020208840304231D021684E
:1027C0000968C9062DD5A86094F835000528206849
:1027D000016806D0490347D5006800031DD4616C29
:1027E0001CE021F0160101602068416921F08001A0
:1027F0004161206C08B9A06C20B12068016821F00B
:102800000801016094F85C103F208840A86084F8BB
:10281000358084F83490216D1FE0E16B09B12046CA
:102820008847606D00282BD0606DC00714D005204C
:1028300084F835002068016821F0010101600098EA
:10284000401C0090B84203D820680068C007F6D149
:1028500084F8358084F83490E16C002910D001B000
:102860002046BDE8F04308470168C905D5D4016892
:1028700021F01001016084F8358084F83490CCE7B1
:10288000BDE8F8831C0000202DE9F041044600F06B
:1028900067FA06465CB1022084F83500002584F80A
:1028A00034502068016821F0010101600DE0012031
:1028B000BDE8F08100F054FA801B052805D92020DE
:1028C0006065032084F83500F2E720680068C007DF
:1028D000F0D12268116820480140D4E9010318436F
:1028E000D4E903363343184363691843A369184393
:1028F000E3691843236A18430843616A042903D132
:10290000D4E90B1319430843106020684069666AD4
:1029100020F0070130460E43012704280CD1A06A9D
:102920000643E06A40B12046FEF774FF20B1402024
:10293000606584F83570BAE7206846612046FEF786
:1029400055FF94F85C203F2191408160656584F8D3
:1029500035700020ACE700003F8010F02DE9F04713
:10296000044622480F46017E01290AD001218046F3
:1029700001764CF250394846FFF768F8020003D060
:102980002FE00220BDE8F0874FF0FF30386020686C
:10299000174D012801D0A6681CE0207C6168FEF775
:1029A000C3FF4846FFF752F80246286820F00400AB
:1029B000286014E0217C3046FEF764FF4846FFF7AC
:1029C00045F80200286820F0FA00286001D03E6037
:1029D00005E0761CD4E902100844B042EAD8FEF7BC
:1029E00079FF002188F818101046CBE7E81700207F
:1029F000103C02400348016841F0004101600020A2
:102A000070470000103C02402DE9F0471B4E054680
:102A10001446307E1F468946012808D001203076B2
:102A20004CF250384046FFF711F818B114E002207C
:102A3000BDE8F0879DB1012D16D0022D19D0224698
:102A40003B464846FEF794FF4046FEF7FFFF0C4921
:102A50000A6822F001020A6000213176E8E7E1B25B
:102A60004846FEF775FFEFE7A1B24846FEF796FF2E
:102A7000EAE721464846FEF7A3FFE5E7E81700200E
:102A8000103C0240074900200A68002A09DA054A7A
:102A9000054B0C3A1360054B13600968002900DAF6
:102AA00001207047103C024023016745AB89EFCD00
:102AB00010B5204C10281AD0202824D0082830D057
:102AC000012813D10CF0F6FA01280FD004F11001FF
:102AD00060690BF02DFE2069002807D016494FF0E1
:102AE00080500860BFF34F8FBFF36F8F10BD0C2075
:102AF00006F008FAA07840F00100A070E07840F0FD
:102B00000100E07006E00B2006F0FCF9607840F070
:102B10000100607060790028E8D0BDE8104006F040
:102B2000F3BC0D2006F0EEF9207940F00100207191
:102B300010BD00002C01002004ED00E0044910B598
:102B40000A68024202D00860FFF7B2FF10BD000021
:102B5000143C01402DE9F84FDFF8BCA1002201250B
:102B60000AF1040B03264FF00F090BF1040E00BF0E
:102B70000B6805FA02F42340A34270D10F7907F0E5
:102B80000307012F01D0022F16D187684FEA4208B0
:102B900006FA08FC27EA0C07D1F80CC00CFA08FC6E
:102BA0004CEA070CC0F808C04768A7430C79C4F387
:102BB000001494403C4344600C79E443A4070AD0D9
:102BC000C4684FEA420C06FA0CF7BC438F6807FA58
:102BD0000CF72743C7600C7904F00304022C12D1D0
:102BE000D40800EB840CDCF820405707FF0E09FAEC
:102BF00007F824EA0804D1F8108008FA07F848EA30
:102C00000408CCF8208004684FEA420C06FA0CF75E
:102C1000BC430F7907F0030707FA0CF72743076057
:102C20004C6814F4403F70D03C4C276847F4804710
:102C30002760246822F0030704F480440094384C91
:102C400007EB040CDCF8084897074FEA177809FAF5
:102C500008F7BC43334FB84202D1002724E054E0C8
:102C6000314FB84201D101271EE0304FB84201D1A7
:102C7000022719E02E4FB84201D1032714E02D4F4F
:102C8000B84201D104270FE02B4FB84201D10527EC
:102C90000AE02A4FB84201D1062705E0284FB84282
:102CA00001D1072700E0082707FA08F72743CCF8E7
:102CB0000878DAF800405746D1F804C09C435FEA30
:102CC000CC3C00D51C433C60DBF800405F46D1F8AB
:102CD00004C09C435FEA8C3C00D51C433C60DEF89A
:102CE00000407746D1F804C09C435FEACC2C00D565
:102CF0001C433C60084F0C373C68D1F804C09C432F
:102D00005FEA8C2C00D51C433C60521C102AFFF457
:102D10002FAFBDE8F88F0000003C0140443802406E
:102D20000030014000000240000402400008024060
:102D3000000C024000100240001402400018024043
:102D4000001C0240426921EA02030A4043EA0241B0
:102D5000816170470AB1816170470904FBE7000097
:102D600001488068704700001000002070B5040022
:102D700025D094F83D00002520B984F83C50204629
:102D800000F04CFA242084F83D002068016821F00E
:102D9000010101602068016841F400410160206880
:102DA000016821F40041016001F02CF84D4A61688E
:102DB000914201D84C4900E04C49884201D201209F
:102DC00070BD4B492368B0FBF1F15E6826F03F0609
:102DD0000E435E606368934206D94FF4967359437D
:102DE0004FF47A73B1FBF3F12368491C1E6A26F095
:102DF0003F06314319626168914210D84900401E74
:102E0000B0FBF1F2521CC2F30B02042A01D20420DF
:102E100022E0B0FBF1F0401CC0F30B001CE0A26804
:102E2000F2B301EBC10303EB0116431EB3FBF6F350
:102E30005B1C43F480431B0549D092B301EBC102F4
:102E400002EB0111401EB0FBF1F0401CC0F30B007F
:102E500040F4804040F400402168CA694CF6FF739A
:102E60009A431043C861D4E90710014320680268FF
:102E700022F0C00211430160D4E90301014320683C
:102E8000826848F2FF339A4311438160D4E9050117
:102E900008432168CA6822F0FF021043C86001E0BD
:102EA0000EE016E02068016841F001010160256430
:102EB000202084F83D00256384F83E50002070BD3A
:102EC00001EB4106431EB3FBF6F35B1CB3E70120A5
:102ED000C2E701EB4101401EB0FBF1F0401CC0F322
:102EE0000B00B7E7A086010080841E0000093D00AA
:102EF00040420F002DE9FF4F83B09A46DDE911975C
:102F000093460446DDF84080FFF72AFF054694F813
:102F10003D00202870D119230122714920460095D7
:102F200002F004FB0028F5D194F83C00012863D09E
:102F3000012084F83C0020680168C90703D10168BA
:102F400041F0010101602068016821F40061016025
:102F5000222084F83D00402084F83E0000262664AC
:102F6000C4F82480A4F82A90608D20855D48E06232
:102F7000CDE9007553465A462046049902F0DEF921
:102F800000287CD1208DD0B1012821D002282068D2
:102F900024D0416980690090208D032869D80128D8
:102FA0002BD0514902283B464FF00002009559D0E2
:102FB0008846204602F0BAFA002860D13CE020683A
:102FC000416981690091016841F40071016077E015
:102FD0002068016821F480610160F0E7016821F454
:102FE000806101602068016841F40061016020682F
:102FF00041698069009063E06FE02A4639462046C7
:1030000002F013FB98BB20680069616A08704EE00B
:103010002068016841F40071016020680069616AFC
:103020000870606A401C6062218D491E2185618D97
:10303000491E6185216838E02068016821F48061BB
:10304000016020680069616A0870606A401C606203
:10305000208D401E2085608D401E60853B460022ED
:1030600041460095204602F061FA00B9D0E706E03B
:10307000FFE72A463946204602F0D7FA18B1012068
:1030800007B0BDE8F08F20680069616A0870606A67
:10309000401C6062218D491E2185618D491E61851C
:1030A00021684A69D24352070AD409690170606AEB
:1030B000401C6062208D401E2085608D401E608512
:1030C000208D00287FF468AF202084F83D0084F82C
:1030D0003E6084F83C600020D2E70220D0E7000088
:1030E000020010000000FFFF040001002DE9FF4F67
:1030F00083B09A46DDE9119793460446DDF8408097
:10310000FFF72EFE054694F83D0020287FD11923B5
:10311000012240492046009502F008FA002876D1A5
:1031200094F83C00012872D0012084F83C0020680B
:103130000168C90703D1016841F0010101602068FD
:10314000016821F400610160212084F83D004020E5
:1031500084F83E0000262664C4F82480A4F82A904F
:10316000608D20852C48E062CDE9007553465A46B3
:103170002046049902F060F970B930E02A463946D9
:10318000204602F085FA58B1206C042804D120684A
:10319000016841F400710160012007B0BDE8F08FC3
:1031A000606A216800780861606A401C6062218D55
:1031B000491E89B22185628D521E6285226853693B
:1031C000DB435B070BD469B100781061606A401C77
:1031D0006062208D401E2085608D401E6085208DA0
:1031E0000028CBD12A463946204602F079F900283A
:1031F000CAD154F83D0B016841F4007101602020F0
:1032000004F81E09E67766770020C6E7FFE702208C
:10321000C3E70000020010000000FFFF2DE9F043AB
:1032200087B0074614216846FDF7C0FA484C474B63
:103230003A68002646481221032510344FF0010851
:103240004FF004099A4218D1026842F0020202606B
:10325000006800F00200059028028DE80301CDE926
:10326000035969463B48FFF775FC206840F400109D
:103270002060206800F4001065E0374B9A4234D19A
:10328000026842F0200202600068CDE9005100F0BF
:103290002000CDE90490CDE9028569462F48FFF76B
:1032A00059FC206840F48000206020682D4C00F418
:1032B000800005902A4820604FF0606060604020E8
:1032C000C4E902060001C4E90406C001A661C4E91C
:1032D000076020466662FFF7D7FA08B1FEF7D1FA19
:1032E0007C63A76307B0BDE8F0831F4B9A42F9D116
:1032F000026842F004020260026802F004020592D1
:10330000026842F00102026000680E4600F001000F
:10331000059058158DE84101CDE9035969461348D8
:10332000FFF718FC4FF480708DE84101CDE9035997
:1033300069460F48FFF70EFC206840F4000020604B
:10334000206800F400000590CCE700000054004025
:10335000303802400004024000580040001402408F
:10336000B8600240640B0020005C0040000802408E
:103370000000024002488168027811448160704771
:10338000100000200B4810B5016841F40071016085
:10339000016841F480610160016841F4807101605D
:1033A000032000F073F80F2000F006F800F024F876
:1033B000002010BD003C024070B50D4D04464FF496
:1033C0007A712878B1FBF0F00A490968B1FBF0F096
:1033D00001F0D1F948B9102C07D200222146501E25
:1033E00000F034F800206C6070BD012070BD00005A
:1033F000100000201C0000200C4882B0016841F43D
:1034000080410160006800F4804000900748001F80
:10341000016841F0805101600068002200F0805096
:1034200000900F21901E02B000F010B84438024006
:10343000002809DB00F01F020121914040098000B3
:1034400000F1E020C0F8001170470000F0B40E4B0E
:103450001B680C46C3F30223C3F10705042D00D9F2
:103460000425191D072901D2002300E0DB1E0126D7
:1034700006FA05F1491E214099409E40761E1640ED
:103480003143F0BC08F053BC0CED00E0064900F0FD
:10349000070208684FF6FF03184040EA0220034A7B
:1034A00010430860704700000CED00E00000FA05D2
:1034B0007047D0F8040404F0E5BEC1EBC10200EB94
:1034C0008202D0F80404926C04F052BEC1EBC10237
:1034D00000EB8202D0F80404D2F8082204F09CBE6B
:1034E000D0F8040404F0D0BE70B5044601F00F001B
:1034F0006268904201D9012070BD0B0601F00F01F6
:10350000C1EBC10104EB81014FF001024FF0000556
:1035100003D581F83D203C3103E081F8FD5101F5F0
:10352000FE718D70087094F8BC03012808D084F8EF
:10353000BC23206805F070FA84F8BC53002070BDED
:10354000022070BD2DE9F04104460F0601F00F0086
:10355000C0EBC00104EB81014FF001064FF0000504
:1035600003D581F83D603C3103E081F8FD5101F560
:10357000FE7108708A60CB704A7802B1C880022B55
:1035800000D10D7194F8BC03012809D084F8BC6304
:10359000206805F03BF9284684F8BC53BDE8F0816B
:1035A0000220FBE770B50C4601F00F05C5EBC50125
:1035B00000EB8101C1F81032C1F808220023C1F8E4
:1035C000143281F8FD3181F8FC51036901F5FE7177
:1035D000012B00D10A612207027C006803D005F0AC
:1035E00073FA002070BD05F05FF9FAE770B5044684
:1035F0000D4601F00F006168884201D9012070BDBD
:1036000029064FF000064FF0010207D5C0EBC001BC
:1036100004EB810181F83D203C3107E0C5EBC50199
:1036200004EB810181F8FD6101F5FE718A7008707B
:1036300094F8BC03012807D084F8BC23206805F067
:1036400017FA280702D007E0022070BD217C04F59C
:103650007172206805F0B4F984F8BC63002070BD75
:1036600070B50C4601F00F05C5EBC50100EB8101FB
:103670000B658A6400234B65012381F83D3001F816
:103680003C5F0369012B00D10A612207027C0068BC
:1036900003D005F019FA002070BD05F005F9FAE72E
:1036A0002DE9FC5F05680446284605F024FB002848
:1036B0007ED1206805F04BFB002879D0206805F00A
:1036C00046FB800704D52168486900F00200486184
:1036D000206805F03CFBC10604F57170009034D5FC
:1036E0002068816921F0100181612F6A07F00F00C5
:1036F000C0EBC00004EB8006C7F3434006F5FE763E
:10370000022802D0062811D01AE047F6F0700742CE
:1037100016D0C7F30A1217462846F16805F01BFBBE
:10372000F0683844F060B069384408E00822284660
:10373000009905F010FBB069C7F30A110844B061A5
:103740002068816941F010018161206805F0FFFA6D
:1037500000034FF0010A4FF0080B5BD500262068EC
:1037600005F0D4FA0746DFF8689351E0F8074DD02A
:10377000F1B2206805F0E3FA8046C00707D005EBF8
:103780004611C1F808AB3146204602F0FFFC5FEA63
:10379000087022D505EB4611C1F808BB2068016C02
:1037A00000EB46100191D0F8082B494507D900E0FD
:1037B0008BE1110403D54FF40041C0F8081B2046EB
:1037C00000F0C2F90198484507D92069012804D1C1
:1037D00020680121009A05F0F3F85FEAC86004D57B
:1037E00005EB46111020C1F8080B5FEA886004D58C
:1037F00005EB46112020C1F8080B5FEA884005D58B
:1038000005EB46104FF40051C0F8081B7F08761CEA
:10381000002FABD1206805F09AFA40034FF0000961
:103820005CD5206805F06BFA0746002654E0F807DF
:1038300050D0F1B2206805F070FA8046C00723D05E
:1038400006F00F020AFA02F0D5F834288243C5F8D0
:10385000342805EB4610C0F808A9206901280FD1CB
:10386000C6EBC60004EB8000D0E91121114481644D
:1038700036B9206D20B920680121009A05F0A0F822
:10388000F1B22046FFF719FE5FEA087003D505EB99
:103890004611C1F808B95FEAC86004D505EB4611C6
:1038A0001020C1F808095FEA486004D505EB46110D
:1038B0004020C1F808095FEA887004D505EB46117D
:1038C0000220C1F808095FEA086003D531462046A6
:1038D00002F0C2FC7F08761C002FA8D1206805F0FA
:1038E00036FA002811DAD5F8040820F00100C5F8EE
:1038F000040894F8F403012829D0204600F008F9C0
:103900002068416901F000414161206805F01FFA1B
:1039100000050BD5D5F80808C00702D0204600F0F6
:103920001BF92068416901F400614161206805F0DC
:103930000EFAC00468D5D5F8040820F00100C5F8D7
:1039400004081021206805F0B3F9002127E084F86D
:10395000F49300212046FFF7ABFDD1E705EB4110C2
:103960004FF67F32C0F80829D0F8003923F400134D
:10397000C0F80039D0F8003943F00063C0F80039CE
:10398000C0F8082BD0F8002B22F40012C0F8002B4E
:10399000D0F8002B42F00062C0F8002B491C606890
:1039A0008842DBD8D5F81C0840F00110C5F81C0887
:1039B000206B60B1D5F8840840F00B00C5F884088E
:1039C000D5F8440840F00B00C5F844080CE0D5F8E1
:1039D000141842F22B000143C5F81418D5F810084A
:1039E00040F00B00C5F81008D5F8000820F4FE6080
:1039F000C5F80008217C2068009A04F0E1FF2068E7
:103A0000416901F480514161206805F0A0F980040A
:103A100015D5206804F03AFF206805F05FF9E060F2
:103A200000F0EAF90146227B206805F0C5F920463E
:103A300000F058F82068416901F4005141612068A4
:103A400005F085F9000707D5204600F065F82068E5
:103A5000416901F008014161206805F078F9C00270
:103A600008D50021204600F035F82068416901F4AE
:103A700080114161206805F06AF9800208D50021B3
:103A8000204600F02BF82068416901F400114161E3
:103A9000206805F05CF9400007D52046FFF709FDD6
:103AA0002068416901F080414161206805F04FF9CB
:103AB00040070AD520684568680702D52046FFF709
:103AC0000FFD2068416829434160BDE8FC9F00006C
:103AD0000A30544FD0F8040404F0F2BBD0F80404C8
:103AE00004F0FEBB70B50446C068012570B1022821
:103AF00001D0FDF7C6FE2946D4F8040404F05CFCAE
:103B0000D4F80404BDE8704004F00FBC0025F2E7CF
:103B1000D0F8040404F036BCD0F8040404F03CBC33
:103B200010B5044690F8BC0301280BD0012084F89E
:103B3000BC0384F83810206805F02CF9002084F8C4
:103B4000BC0310BD022010BDD0F8042400F5717133
:103B5000104604F03DBC000010B50446D0F8040443
:103B600004F06FFC2068D0F8001E41F00101C0F89D
:103B7000001E206A002804D00248016841F00601B6
:103B8000016010BD10ED00E02DE9F8430546006826
:103B90004FF00109C1074FF0000601D1400727D5BA
:103BA000DFF80C81C8F86860FFF7DAF80746414C87
:103BB00005E000BFFFF7D4F8C01B022857D82068E3
:103BC0000001F7D468688101287A41EA0070394918
:103BD00084310860C8F86890FFF7C2F8074604E02F
:103BE000FFF7BEF8C01B022841D820680001F7D5B6
:103BF0002878800752D52F484030016841F0805125
:103C0000016000682C4C00F080500090206840F467
:103C100080702060FFF7A4F8074604E0FFF7A0F8E3
:103C2000C01B022823D82068C005F7D5214C70346A
:103C3000206810F4407020D0A98901F440718142BD
:103C40001BD020681D4920F44070C1F800900E6020
:103C500020602068C00710D0FFF782F8064641F2C6
:103C6000883707E0FFF77CF8801BB84202D90320B1
:103C7000BDE8F88320688007F4D5E9680D48C1F3F2
:103C800001220830032A0BD0016821F4F8110160E9
:103C90002068A989C1F30B01084320600020E7E7F1
:103CA0000268074B22F4F81219400A430260EFE75A
:103CB000000047420038024000700040400E47427A
:103CC000FFFCFF0F2DE9F0470E46050065D0DFF839
:103CD0001481D8F80000F7B200F00700B04207D214
:103CE00088F80070D8F8000000F00700B04254D106
:103CF00028683D4C810712D5400703D5206840F461
:103D0000E05020602878000703D5206840F4604028
:103D100020602068A96820F0F0000843206028781F
:103D2000C0072DD0304968680839012812D0022810
:103D300013D0032811D00968890700292DDA2168DA
:103D400021F0030101432160FFF70AF8814641F2A7
:103D5000883A0EE009688903EFE709688901ECE712
:103D6000FEF7FEFFA0EB0901514502D90320BDE893
:103D7000F0872068696800F00C00B0EB810FEFD18C
:103D8000D8F80010404601F00701B14207D907708A
:103D9000006800F00700B04201D00120E7E7287872
:103DA000400705D52068E96820F4E050084320600A
:103DB0002878000706D52068296920F4604040EA89
:103DC000C100206000F03EF82168084AC1F30311E9
:103DD000515CC8400649086006480068FFF7ECFAE5
:103DE0000020C4E7003C024008380240D4F4000838
:103DF0001C000020140000200148006870470000EB
:103E00001C0000200448054900680968044AC1F301
:103E10008221515CC84070471C00002008380240D5
:103E2000E4F400080448054900680968044AC1F33D
:103E30004231515CC84070471C00002008380240E5
:103E4000E4F40008154810B5006810F00C0214489E
:103E500013D01449042A0FD0082A0ED10F4C241F66
:103E60002268236802F03F025B0207D52068C0F396
:103E70008810A0FB010106E0084610BD2168C1F3CF
:103E80008811A1FB00010023FCF742FB2168C1F36C
:103E90000141491C4900B0FBF1F010BD0838024057
:103EA0000024F400001BB7002DE9F84F04006ED089
:103EB0002078DFF84C93C007A9F104054AD009F136
:103EC00004000168C1F38101012908D00068C0F332
:103ED000810002280AD1D9F80000400206D52868DE
:103EE000800337D560680028E1D033E06068B0F522
:103EF000803F10D0B0F5A02F286810D020F480307B
:103F00002860286820F4802028606068A8B1FEF747
:103F100027FF06460DE0286840F48030F4E740F4BF
:103F200080202860F7E700BFFEF71AFF801B642897
:103F300073D828688003F7D50CE0FEF711FF06461A
:103F400005E000BFFEF70CFF801B6428F0D828684E
:103F50008003F7D42078DFF8AC8280074FF0000AA6
:103F60003ED5A748001D016811F00C0F08D000686D
:103F7000C0F3810002280BD1D9F80000400207D419
:103F80002868800716D5E068012800D112E033E1E7
:103F9000E068B8B10120C8F80000FEF7E1FE06466F
:103FA00005E000BFFEF7DCFE801B0228C0D82868B1
:103FB0008007F7D52868216920F0F80040EAC100A1
:103FC00028600DE0C8F800A0FEF7CAFE064604E02F
:103FD000FEF7C6FE801B02281FD828688007F7D48A
:103FE0002078000722D5864F87486169703771B104
:103FF00001210160FEF7B4FE064604E0FEF7B0FEC4
:10400000801B022809D838688007F7D50EE0C0F871
:1040100000A0FEF7A5FE064605E082E0FEF7A0FE42
:10402000801B02287DD838688007F7D420784007A5
:1040300068D5DFF8CCB100270BF13C0BDBF80000B2
:10404000C0000BD4DBF8001041F08051CBF8001019
:10405000DBF80000012700F0805000906B4E3068C4
:10406000C00510D4306840F480703060FEF778FEF0
:10407000009005E0FEF774FE0099401A022850D81F
:104080003068C005F6D55E4EA0686C3601280FD0AA
:104090000528306810D020F001003060306820F032
:1040A00004003060A068B8B1FEF75AFE00900FE03F
:1040B000306840F00100F4E740F004003060F7E7BA
:1040C000FEF74EFE0099411A41F28830814266D8CF
:1040D00030688007F4D50EE0FEF742FE009007E05E
:1040E000FEF73EFE0099411A41F28830814256D8CF
:1040F00030688007F4D42FB1DBF8001021F0805134
:10410000CBF80010A069C8B33D49091D0968C1F387
:10411000810102294AD00228504607D0C8F8600021
:1041200000E03CE0FEF71CFE04463BE04746C8F8D2
:104130006000FEF715FE064605E000BFFEF710FE24
:10414000801B02282BD828688001F7D4D4E9070106
:104150000843A16A2E4A490802EB0141626A41EA1A
:104160008211084394F82C1040EA0161C9F800104C
:1041700001203866FEF7F4FD044606E03EE000BF8D
:10418000FEF7EEFD001B022809D828688001F7D54C
:1041900034E000BFFEF7E4FD001B022802D9032033
:1041A000BDE8F88F28688001F4D427E00128F7D013
:1041B000D9F80000E26900F4800191421CD1226A22
:1041C00000F03F01914217D147F6C071626A014089
:1041D000B1EB821F10D1A26A4FF0FF3300F44031DF
:1041E00003EB5202B1EB024F06D194F82C1000F011
:1041F0007060B0EB016F01D00120D1E70020CFE764
:104200000438024000004742800E474200700040E0
:104210000000FFFF70B5040003D06079002510B1E5
:1042200005E0012070BD2571204600F00DF8022048
:1042300060712068016841F0040101600120607133
:10424000A560002070BD000008B5006806498842DE
:1042500008D10648016841F040010160006800F0A3
:104260004000009008BD00000008065034380240AD
:1042700070B5040002D0607F10B106E0012070BD6F
:1042800000202077204600F049F80220607721685E
:10429000CA204862216853204862204602F086F80E
:1042A000FF25042618BB206881681B4A11408160E5
:1042B0002168886862681043D4E904231A431043D4
:1042C00088602168E068086120680169228941EA04
:1042D000024101612068C16821F08001C16020684D
:1042E0008068800607D4204600F036F818B12068B0
:1042F00045626677C2E72068016C21F48021016481
:104300002068016CA26911430164206845620120A4
:104310006077002070BD0000BFFF8FFF1FB5002138
:1043200000910191029103910068084988420CD1E3
:1043300002200090064803906846FFF725FC08B16C
:10434000FDF79FFA0349012008601FBD00280040C7
:1043500000031E003C0E474270B504460068C16869
:1043600021F0A001C160FEF7FBFC05464FF47A7610
:1043700007E000BFFEF7F4FC401BB04201D9032068
:1043800070BD2068C0688006F4D5002070BD70B58F
:10439000040009D0606A002540B125616561A5620D
:1043A00094F8510040B10CE0012070BD6068B0F598
:1043B000827FF4D0E561F2E784F85050204600F0A7
:1043C00045F8022084F851002068016821F040017E
:1043D0000160A088218900F4827001F4044108433F
:1043E000A18901F400610843217C01F00201084326
:1043F000217D01F001010843218B01F40071084384
:10440000217F01F03801084394F8201001F0800169
:104410000843218D01F40051084321680860A06918
:10442000042101EA104094F8241001F0100108431F
:10443000216848602068C16921F40061C161656537
:10444000012084F85100002070BD00002DE9F047E4
:1044500086B0054614216846FCF7A8F9DFF818C1B4
:10446000296846480226012703220523DFF8108128
:104470000024614560D141491431D1F800C04CF4A9
:10448000805CC1F800C0096801F4805105910168A1
:1044900041F002010160016801F00201059101682B
:1044A00041F0010101600068914600F001000590B3
:1044B00018209A468DE8C10669464046FEF74AFB39
:1044C00080208DE8C10669462E48FEF743FB2F4E3B
:1044D0002D484FF0C0673060C6E901744FF4806822
:1044E000C6E9034874617812B461C6E907403046F2
:1044F0007462FEF7C9F908B1FDF7C3F9EE64B5635C
:10450000224E214860361830E6E802074020A6E82F
:104510001101C00246F81449B461C6E907401B48BE
:1045200074626030FEF7B0F908B1FDF7AAF9AE6425
:10453000B56306B0BDE8F087154CA142F9D10F492B
:1045400010310C6844F480440C60096801F4804127
:104550000591016841F0020101600068694600F0C0
:10456000020005904FF460408DE8C1004046CDE95F
:104570000323FEF7EFFADCE7003001403038024059
:10458000000402400000024040640240A40C0020ED
:10459000003800402DE9F84F044690F850000027FD
:1045A0000A9E1D4692468B464FF0010901280ED007
:1045B000012084F85000FEF7D3FB804694F85100A8
:1045C000616801280CD0B1F5827F07D102E002209A
:1045D000BDE8F88FA16809B9042801D00227C2E01C
:1045E000BBF1000F27D0BAF1000F24D01DB394F80F
:1045F0005100042802D0052084F851000020606595
:10460000C4F838A0E587A587C4F830B0E586A5864C
:104610002064606420680168490603D4016841F0A1
:1046200040010160E068B0F5006F606805D0E8B354
:10463000012D46D07FE0012795E008B1012D39D149
:10464000206B21680088C860206B801C2063E08E8E
:10465000401EE0862EE02068816889070FD5E18E34
:1046600069B1B9F1010F0AD1216B0988C160206BD2
:10467000801C2063E08E401EE0864FF00009206819
:104680008168C9070CD0E18F51B1C068A16B088067
:10469000A06B801CA063E08F401EE0874FF00109F3
:1046A000FEF75EFBA0EB0800B04200E009E001D39A
:1046B000701C50D1E08E0028CDD1E08F0028CAD1E7
:1046C0003FE0206B216800780873206B401C20635A
:1046D000E08E401EE0862EE02068816889070FD5B5
:1046E000E18E69B1B9F1010F0AD1216B097801732B
:1046F000206B401C2063E08E401EE0864FF00009D6
:1047000020688168C9070CD0E18F51B1C068A16BE6
:104710000870A06B401CA063E08F401EE0874FF044
:104720000109FEF71DFBA0EB0800B04202D3701C8C
:1047300001D010E07EB1E08E0028CDD1E08F0028BE
:10474000CAD142463146204603F000F828B101277D
:104750002020606507E0032705E0A06818B92068FD
:10476000C16880680090012084F85100002084F81E
:10477000500038462CE710B5401EB0F1807F01D3C1
:10478000012010BD4FF0E02460610F21601707F099
:10479000CEFA0020A06107202061002010BD7047E4
:1047A000704710B590F83C20012A22D0012280F8F1
:1047B0003C20CA688C6822F4407222434C6822F480
:1047C000806222430C6822F4006222430C6922F4C6
:1047D000805222434C6922F400522243C9690023CB
:1047E00022F480420A4301684A6480F83C30002089
:1047F00010BD022010BD000070B590F83C20012AC9
:1048000032D0012480F83C40022280F83D20036829
:104810005A689D6822F070060A6832435A60134B4A
:1048200002689A4214D0B2F1804F11D0104B9A42D4
:104830000ED0104B9A420BD00F4B9A4208D00F4B20
:104840009A4205D00E4B9A4202D00E4B9A4204D1A6
:10485000496825F080031943916080F83D400021AC
:1048600080F83C10084670BD022070BD0000014079
:104870000004004000080040000C0040000401401B
:10488000004001400018004010B5040003D094F827
:104890003D0010B107E0012010BD002084F83C006D
:1048A000204600F01FF8022084F83D00211D2068FA
:1048B00003F068F8012084F8460084F83E0084F88C
:1048C0003F0084F8400084F8410084F8420084F8F6
:1048D000430084F8440084F8450084F83D0000203B
:1048E00010BD000008B52749026827488A4207D151
:1048F000016841F001010160006800F0010036E04C
:104900002149224B091F9A4205D1086840F0020054
:10491000086008681EE01E4B9A4208D1086840F003
:1049200004000860086800F00400009008BD194BFE
:104930009A4207D1086840F008000860086800F053
:104940000800F2E714498A4207D1016841F00201E8
:104950000160006800F00200E7E710498A42E5D1F3
:10496000016841F400310160006800F400300090FB
:10497000002205211920FEF769FDBDE80840192035
:10498000FEF756BD000001404438024000040040DC
:1049900000080040000C00400004014000440140B9
:1049A00090F83D10012901D001207047022180F8C4
:1049B0003D1000681149884214D0B0F1804F11D0E9
:1049C0000F4988420ED00F4988420BD00E498842C9
:1049D00008D00E49884205D00D49884202D00D49C1
:1049E000884204D1816801F00701062903D00168DB
:1049F00041F001010160002070470000000001400B
:104A00000004004000080040000C00400004014089
:104A1000004001400018004070B5044690F83C008A
:104A20000025012817D0012684F83C60022084F874
:104A30003D002068826822F0770222F47F42826083
:104A40000868502838D00DDC20284FD005DC90B302
:104A5000102811D14AE0022070BD302846D04028ED
:104A60000AD13BE060282FD070280DD0B0F5805FD0
:104A700003D0B0F5005F12D0012584F83D6000201E
:104A800084F83C00284670BDCB68D1E9012120683C
:104A900002F0E9FF2068816841F0770109E0CB6806
:104AA000D1E90121206802F0DEFF2068816841F42D
:104AB00080418160E1E719E0CA684968206803F035
:104AC000A7F85021206806E0CA684968206803F00A
:104AD000B0F86021206802F0D0FFCEE7CA684968CC
:104AE000206803F095F840212068F4E72268014629
:104AF0001046F0E7704770B50446006801694FF052
:104B00000005C943890715D4C168C943890711D471
:104B1000E91E016101202077206880698007204616
:104B200002D0FFF7E7FF04E000F078F9204600F03C
:104B30000AFA257720680169C943490717D4C16873
:104B4000C943490713D46FF00401016102202077A3
:104B50002068806910F4407F204602D0FFF7CAFF2A
:104B600004E000F05BF9204600F0EDF925772068BD
:104B70000169C943090716D4C168C943090712D49A
:104B80006FF008010161042020772068C069800768
:104B9000204602D0FFF7AEFF04E000F03FF92046C8
:104BA00000F0D1F9257720680169C943C90617D4F7
:104BB000C168C943C90613D46FF010010161082010
:104BC00020772068C06910F4407F204602D0FFF7AC
:104BD00091FF04E000F022F9204600F0B4F92577B7
:104BE00020680169C943C90708D1C168C943C90719
:104BF00004D1891E0161204600F00AFA206801698B
:104C0000C943090609D4C168C943090605D46FF030
:104C1000800101612046FFF7C2FD20680169C94398
:104C2000490609D4C168C943490605D46FF040015B
:104C30000161204600F00AFA20680169C94389062B
:104C40000BD4C168C943890607D46FF02001016104
:104C50002046BDE87040FFF7A3BD70BD2DE9F041CF
:104C600086B0044614216846FBF7A0FD5C4A216823
:104C70005C4802240125914217D1016841F01001DE
:104C800001600068694600F0100005904FF4D440C0
:104C90008DE831005448CDE90345FDF75BFF5348EB
:104CA000FFF77EFE06B0BDE8F081514ADFF844818F
:104CB00091420FD1016841F004010160006869462A
:104CC00000F00400059090158DE8310003944046F3
:104CD000049468E0484A0326914217D1016841F0E4
:104CE000080101600068694600F008000590101492
:104CF0008DE8710041480494FDF72CFF3B4890304B
:104D0000FFF74EFE39480821903025E03C4A914299
:104D100025D1016841F0800101600068694600F01A
:104D2000800005904FF4E0508DE831000394354841
:104D30000494FDF70FFF2D48D830FFF731FE2B48C4
:104D40000021D83000F000F928480421D83000F0C4
:104D5000FBF826480821D83000F0F6F8A2E72A4AE6
:104D60004027914222D1016841F4807101600168BD
:104D700001F480710591016841F00401016000684F
:104D80000097CDE9014500F00400CDE904606946D3
:104D900003941E48FDF7DEFE0097CDE90145CDE9FD
:104DA000034669464046FDF7D5FE7BE7184A914227
:104DB000D4D1016841F02001016000680097CDE97D
:104DC000014500F02000CDE90460694603941148D4
:104DD000FDF7C0FE1048FFF7E3FD00210E48BBE7DA
:104DE000000001403038024000100240640D0020F5
:104DF000000400400008024000080040000C02408F
:104E0000000C0040001C0240000401400020024051
:104E10000044014000140240CC0E0020704770B5E1
:104E2000044690F83C0000260D4601280FD00120D2
:104E300084F83C006AB1042A1DD0082A2FD00C2A1D
:104E40003FD00126002084F83C00304670BD02208F
:104E500070BD206802F01AFE2068816941F00801E7
:104E600081612068816921F0040181612068816984
:104E70002A69114311E0206802F038FE2068816938
:104E800041F4006181612068816921F48061816160
:104E9000206881692A6941EA02218161D2E720689C
:104EA00002F05AFE2068C16941F00801C161206822
:104EB000C16921F00401C1612068C1692A691143F7
:104EC00011E0206802F07CFE2068C16941F40061B5
:104ED000C1612068C16921F48061C1612068C16934
:104EE0002A6941EA0221C161ACE710B5040003D090
:104EF00094F83D0010B107E0012010BD002084F8B7
:104F00003C00204600F01EF8022084F83D00211DE0
:104F1000206802F037FD012084F8460084F83E0046
:104F200084F83F0084F8400084F8410084F842008F
:104F300084F8430084F8440084F8450084F83D0078
:104F4000002010BD7047704710B50446022249B1D9
:104F500004290ED0082913D094F84100012816D056
:104F6000012010BD94F83E000128F9D184F83E20BC
:104F70000FE094F83F000128F2D184F83F2008E0C8
:104F800094F840000128EBD184F8402001E084F837
:104F900041200122206802F059FD16492068164A76
:104FA000884201D0904203D1436C43F400434364F0
:104FB0002068884213D0B0F1804F10D00F4988424A
:104FC0000DD00F4988420AD00E49884207D090423E
:104FD00005D00D49884202D00C49884204D181682D
:104FE00001F00701062903D0016841F001010160C9
:104FF000002010BD000001400004014000040040FA
:1050000000080040000C0040004001400018004033
:105010000B4910B5884212D180210A48FDF792FE53
:10502000094AD2E90201431C41F10001C2E90231FF
:10503000C00704D1BDE81040022009F081BC10BDBA
:10504000640D00200020024040020020704770B52F
:10505000040004D094F83D00002510B106E00120C2
:1050600070BD84F83C50204600F022F8242084F8DB
:105070003D002068C16821F40051C160204602F063
:1050800079FE2068016921F490410161206841693D
:1050900021F02A0141612068C16841F40051C160DA
:1050A0002564202084F83D0084F83E00002070BD77
:1050B0002DE9F04F87B0044614216846FBF776FBD4
:1050C0008748DFF818821438D4F800C0844A0221D7
:1050D00003260723002507154FF0400B4FF0006A09
:1050E000C44565D1D2F800C04CF0100CC2F800C025
:1050F000126802F010020592026842F00202026099
:10510000026802F002020592026842F001020260A7
:105110000068894600F0010005908020CDE9000973
:105120000DF1080C98468CE8600169466D48FDF762
:1051300011FD7810CDE900090DF10809694689E8EB
:1051400060016948FDF706FD694E6848D046C6E92A
:1051500003577561B56186E80109B801C6E90750D2
:1051600030467562FDF790FB08B1FCF78AFB666379
:10517000B4635F4E5D48603630383060C6E9018503
:10518000C6E9035775614FF44030B561C6E9075071
:1051900030467562FDF778FB08B1FCF772FBA66339
:1051A000002205212520B463FEF750F925203DE0BB
:1051B000DFF840814FF40039C4453CD1484A121F02
:1051C000D2F800C04CF4802CC2F800C0126802F47F
:1051D00080220592026842F0040202600068049393
:1051E00000F0040005904FF440608DE863006946CC
:1051F0004148FDF7AFFC3E4E4048C0363060C6E93E
:1052000001A5C6E903577561B561C6E9075930467E
:105210007562FDF739FB08B1FCF733FBA66300228A
:1052200004212720B463FEF711F92720FEF700F9C7
:1052300007B0BDE8F08F324B9C45F9D1136843F0BD
:1052400020031360126802F020020592026842F007
:1052500040020260006800F0400005904FF4844076
:105260008DE863000820049069462648FDF772FC2B
:105270001E48254E90384FF020683060C6E9018501
:10528000C6E903577561B561C6E9075930467562CD
:10529000FDF7FAFA08B1FCF7F4FAA663B4631A4E04
:1052A000124860361838C6E903577561B56186E85B
:1052B00001094FF48030C6E9075030467562FDF7AA
:1052C000E3FA08B1FCF7DDFA666300220521472006
:1052D000B463FEF7BBF84720A8E7000000100140C8
:1052E000443802400004024000000240B86402401A
:1052F000E00F002000480040000802402860024003
:10530000001401400018024000110020FEE701686F
:105310004A69D24352050FD46FF480624A6100217A
:1053200040F8301F202242738173026942F0040268
:105330000261017301207047002070472DE9F84F8A
:105340000446006889460B9D01689846174641F45B
:10535000806101602068016841F4807101600095FE
:105360004FF0011B0022594620460A9B00F0DEF850
:105370004FF4007A40B120680068C00501D5C4F838
:1053800040A00320BDE8F88F216809F0FE00086105
:105390002B46284920460A9A00F0FCF8F0BB20680A
:1053A0004169806900902A4620460A9900F070F908
:1053B00040B1206C04283AD12068016841F40071A2
:1053C000016034E0FEB2B8F1010F09D02168380A5B
:1053D00008612A4620460A9900F05AF90028E8D1C7
:1053E000206806612A4620460A9900F051F90028F3
:1053F000DFD12068016841F48071016000950022CE
:10540000594620460A9B00F091F80028B3D1216844
:1054100009F0FF0040F00100086100E007E02B46C2
:10542000044920460A9A00F0B5F80028AAD00120C5
:10543000A8E70000020001002DE9F84304460068D7
:105440000D46DDE9089701689846164641F48071DB
:1054500001604B4600224FF001112046009700F0FA
:1054600065F848B120680068C00502D54FF40070A7
:1054700020640320BDE8F883216805F0FE00086180
:105480003B464A461549204600F084F888B9206812
:105490004169806900903A464946204600F0F8F894
:1054A00048B1206C042804D12068016841F40071DF
:1054B00001600120DEE7F5B2B8F1010F09D02168E3
:1054C000300A08613A464946204600F0E1F80028D3
:1054D000E7D1206805610020CCE700000200010050
:1054E00070B516460D4604460DE02046FFF70FFF47
:1054F00008B1012070BD681C05D0FDF731FC801B90
:10550000A84207D835B120684069C0434007ECD4B1
:10551000002070BD002044F8300F20216173A0737B
:10552000216941F0200121612073E2E72DE9F04774
:105530001E4690460D460446C1F30747DDF820900D
:1055400008E0701C06D0FDF70BFCA0EB0900B04290
:105550000FD876B12068012F18D0806925EA0000A5
:105560000004000C14D000214145EAD00020BDE821
:10557000F087002044F8300F20216173A073216967
:1055800041F02001216120730120F0E74069E5E747
:105590000121E9E72DE9F0479A4691460E46044677
:1055A00000254FF02008C1F3074725E02068406937
:1055B000C043400514D42068016841F400710160C3
:1055C00021686FF480604861256384F83D8084F829
:1055D0003E50206C40F00400206484F83C501FE0F2
:1055E000B9F1FF3F08D0FDF7BBFBA0EB0A0149452D
:1055F0000CD8B9F1000F09D02068012F13D08069B1
:1056000026EA00000004000C0BD0CFE744F8305F1E
:1056100084F80D80A573206940F020002061257377
:105620000120BDE8F0874069EAE72DE9F041002557
:1056300090460E460446202717E04069C043C00646
:105640000CD454F8301B6FF01000486144F8105926
:105650006777A577206A2062257717E0FDF780FB42
:10566000A0EB0800B04208D83EB120684169C943A8
:105670004906E2D40020BDE8F08144F8305F67734A
:10568000A573206940F02000206125730120F2E716
:1056900070B516460D4604460DE02046FFF737FE6E
:1056A00008B1012070BD681C05D0FDF759FB801BB7
:1056B000A84207D835B120684069C0430006ECD441
:1056C000002070BD002044F8300F20216173A073CA
:1056D000216941F0200121612073E2E77FB50024B8
:1056E00015480094019402941249039401604FF408
:1056F0000031C0E901140461047680F820400F49AC
:10570000C0E90A140125C561C46080F830404561D4
:10571000FCF76DFA08B1FCF7B4F81020CDE90005EC
:10572000694602940448FCF7B9F9002801D0FCF757
:10573000A8F87FBD00200140880900200100000F6B
:105740007FB50024154800940194029412490394F3
:1057500001604FF40031C0E901140461047680F85F
:1057600020400F49C0E90A140125C561C46080F8D2
:1057700030404561FCF73BFA08B1FCF782F808209D
:10578000CDE90005694602940448FCF787F9002832
:1057900001D0FCF776F87FBD00220140D00900203F
:1057A0000100000F0F4810B50D4901600321416051
:1057B00000214FF410228160C0E903124FF400125F
:1057C0004261017641768176C17601774177FCF7B7
:1057D000BAFD002803D0BDE81040FCF752B810BD58
:1057E00000640040180A00200F4810B50D49016000
:1057F0000321416000214FF410228160C0E90312AF
:105800004FF400124261017641768176C1760177CC
:105810004177FCF798FD002803D0BDE81040FCF765
:1058200030B810BD00680040400A0020074910B59C
:10583000054808600846FCF732FF002803D0BDE8A1
:105840001040FCF71EB810BD0030024008000020D8
:10585000294808B5016841F480010160016801F43C
:1058600080010091016841F400110160006800228C
:1058700000F40010009005210C20FDF7E7FD0C203E
:10588000FDF7D6FD002205212F20FDF7DFFD2F209B
:10589000FDF7CEFD002205213920FDF7D7FD392087
:1058A000FDF7C6FD002205213A20FDF7CFFD3A2085
:1058B000FDF7BEFD002205213B20FDF7C7FD3B2083
:1058C000FDF7B6FD002205214420FDF7BFFD442071
:1058D000FDF7AEFD002205214520FDF7B7FD45206F
:1058E000FDF7A6FD002205214620FDF7AFFDBDE82E
:1058F00008404620FDF79CBD3038024000B587B017
:105900001C2206496846FAF7F5FE0021684607F0B2
:105910001AFF0349086007B000BD0000B0F400089A
:10592000000000202DE9F04387B014216846FAF703
:105930003DFF6C480025016841F0020101600168EB
:1059400001F002010591016841F040010160016828
:1059500001F040010591016841F001010160016819
:1059600001F001010591016841F008010160016841
:1059700001F008010591016841F00401016001682E
:1059800001F004010591016841F480710160016832
:1059900001F480710591016841F020010160016806
:1059A00001F020010591016841F08001016001686A
:1059B00001F080010591016841F01001016000686B
:1059C000494E00F010000590002280213046FDF77E
:1059D000C1F9464F012240213846FDF7BBF9DFF8F7
:1059E0001081012210214046FDF7B4F9DFF804913F
:1059F000012241F201014846FDF7ACF90124802063
:105A0000CDE9000469463046CDE90245FDF7A2F82C
:105A10004020CDE900040294694638460394FDF71E
:105A200099F809204FF40416CDE90006694602945E
:105A30003846FDF78FF80720CDE900052E4F69465F
:105A400038460295FDF786F8CDE90045694640469F
:105A50000294FDF77FF81020CDE900040225694685
:105A60004046CDE90245FDF775F83020CDE9000646
:105A7000694602943846FDF76DF82003CDE900042D
:105A80000294694648460394FDF764F80094694619
:105A900048460194CDE90245FDF75CF80621002255
:105AA0000846FDF7D3FC0620FDF7C2FC00220521C5
:105AB0000920FDF7CBFC0920FDF7BAFC00220521E7
:105AC0000A20FDF7C3FC0A20FDF7B2FC00220521E5
:105AD0001720FDF7BBFC1720FDF7AAFC07B0BDE8B7
