:020000040800F2
:10000000E8B70020290300086F50000841420008AB
:100010006D50000869100008017C00080000000015
:10002000000000000000000000000000690200085D
:100030005114000800000000C5020008E566000831
:100040004303000843030008430300084303000878
:100050004303000843030008531400084303000847
:1000600043030008591400085F1400084303000804
:100070004303000843030008430300084303000848
:100080004303000843030008430300084303000838
:100090006D100008430300084303000865140008BE
:1000A0004303000843030008430300084303000818
:1000B0004303000843030008430300084303000808
:1000C00043030008430300084303000843030008F8
:1000D00043030008430300084303000843030008E8
:1000E00043030008430300084303000843030008D8
:1000F0004303000843030008430300088510000879
:1001000043030008430300084303000843030008B7
:1001100043030008430300084303000843030008A7
:1001200043030008DD100008E9100008430300083D
:100130004303000843030008430300084303000887
:1001400079100008430300084303000871500008B9
:1001500043030008BD130008C91300084303000847
:100160004303000843030008430300084303000857
:100170004303000843030008430300080000000095
:10018000430300084303000800F002F800F05CF8A5
:100190000AA090E8000C82448344AAF10107DA45E2
:1001A00001D100F051F8AFF2090EBAE80F0013F0D8
:1001B000010F18BFFB1A43F00103184714B50000E4
:1001C00034B500000A444FF0000C10F8013B13F066
:1001D000070408BF10F8014B1D1108BF10F8015BA0
:1001E000641E05D010F8016B641E01F8016BF9D193
:1001F00013F0080F1EBF10F8014BAD1C0C1B09D1EA
:100200006D1E58BF01F801CBFAD505E014F8016B5B
:1002100001F8016B6D1EF9D59142D6D370470000ED
:100220000023002400250026103A28BF78C1FBD8FF
:10023000520728BF30C148BF0B6070471FB50AF096
:1002400001FE1FBD10B510BD00F079FA1146FFF791
:10025000F5FF08F0F3FF00F097FA03B4FFF7F2FFA1
:1002600003BC00F09BFA00002C4B19680868B0E84A
:10027000F04F80F30988BFF36F8F4FF0000080F3D9
:10028000118870470000000008480068006880F38B
:1002900008884FF0000080F3148862B661B6BFF39F
:1002A0004F8FBFF36F8F00DF00BF00BF08ED00E08E
:1002B000DFF80C00016841F470010160704700BF75
:1002C00088ED00E0EFF30980BFF36F8F134B1A68DE
:1002D0001EF0100F08BF20ED108A20E9F04F1060CB
:1002E00009B44FF0500080F31188BFF34F8FBFF374
:1002F0006F8F0AF025F84FF0000080F3118809BCD9
:1003000019680868B0E8F04F1EF0100F08BFB0EC95
:10031000108A80F30988BFF36F8F70472000002098
:10032000EFF30580704700000948804709480047FF
:10033000FEE7FEE7FEE7FEE7FEE7FEE7FEE7FEE795
:10034000FEE7FEE704480549054A064B70470000F2
:100350009967000889010008E8770020E8B70020C5
:10036000E8970020E89700209FED1A1AF5EE000AA2
:1003700040EE010ABDEEE00AF5EEC00A10EE100AEA
:10038000F1EE10FA38BF401E00EE100A1349F7EEE6
:10039000001AB8EEC00A30EEC00ADFED0F0A20EEF8
:1003A000200AFCEEC00A10EE900AC0F3080000EE2E
:1003B000900A01EB8000F8EE600A90ED011A70EEF1
:1003C000600A90ED000A71EEE01A21EE800A00EE5C
:1003D000810A704783F9223E00000044C4AE000841
:1003E000DFED190AB5EEC00A60EE200ABDEEE01A94
:1003F00011EE100AF1EE10FA38BF401E00EE100A9E
:100400001349F7EE001AB8EEC00A30EEC00ADFED6D
:100410000F0A60EE200ABCEEE00A10EE100AC0F3EC
:10042000080000EE100A01EB8000B8EE400A90EDE3
:10043000011A70EEC00A90ED000A71EEE01A21EE8A
:10044000800A00EE810A704783F9223E00000044D2
:10045000C4AE000853EA020C00F069802DE9F04BAD
:100460004FF00006002B1FBFB3FA83F503FA05F423
:1004700024FA05F65E4012BF1643B2FA82F502FA7C
:1004800005F4C5F120051EBF22FA05FC44EA0C0460
:10049000203556EA044C4FEA144418BF641C4FF050
:1004A00000084FF00009904271EB030C39D300298A
:1004B00019BFB1FA81F701FA07F6B0FA80F700FA2E
:1004C00007F6C7F120071EBF20FA07FC46EA0C0614
:1004D0002037B6FBF4FCA7EB0507103F07F01F0B16
:1004E000CBF120060CFA0BFB2CFA06F644BFB34600
:1004F0000026202FA4BF5E464FF0000B5BEA060CDF
:1005000008BF4FF0010B19EB0B09ABFB027C48EB6A
:100510000608C01B06FB02CC0BFB03CC71EB0C01E5
:10052000C1E70B46024641464846BDE8F08B13B58D
:100530004FF000004FF00001AFF30080BDE81C4019
:10054000704710B5431C02E010F8011B71B1810720
:10055000FAD14FF0013202C88C1A8C4314EAC2114E
:10056000F9D0C01A0A0603D0C01E10BDC01A10BDB3
:100570000A0401D0801E10BD0902FCD0401E10BD2F
:10058000032A40F2308010F0030C00F0158011F8BF
:10059000013BBCF1020F624498BF11F801CB00F897
:1005A000013B38BF11F8013BA2F1040298BF00F8EB
:1005B00001CB38BF00F8013B11F0030300F02580A8
:1005C000083AC0F0088051F8043B083A51F804CBCF
:1005D000A0E80810F5E7121D5CBF51F8043B40F895
:1005E000043BAFF30080D20724BF11F8013B11F8A0
:1005F00001CB48BF11F8012B24BF00F8013B00F8E4
:1006000001CB48BF00F8012B704710B5203AC0F06D
:100610000B80B1E81850203AA0E81850B1E8185003
:10062000A0E81850BFF4F5AF5FEA027C24BFB1E840
:100630001850A0E8185044BF18C918C0BDE81040B1
:100640005FEA827C24BF51F8043B40F8043B08BFBA
:100650007047D20728BF31F8023B48BF11F8012B81
:1006600028BF20F8023B48BF00F8012B704702F07A
:10067000FF0343EA032242EA024200F037B84FF098
:10068000000200B5134694469646203922BFA0E8E2
:100690000C50A0E80C50B1F12001BFF4F7AF0907EE
:1006A00028BFA0E80C5048BF0CC05DF804EB8900DF
:1006B00028BF40F8042B08BF704748BF20F8022B22
:1006C00011F0804F18BF00F8012B7047704770473A
:1006D000704710B500F02EF8006810BD10B5044644
:1006E00000F028F8046010BD4FF000020429C0F0AB
:1006F000128010F0030C3FF4C4AFCCF1040CBCF139
:10070000020F18BF00F8012BA8BF20F8022BA1EBA5
:100710000C01FFF7B6BF5FEAC17C24BF00F8012BD4
:1007200000F8012B48BF00F8012B704700487047C4
:10073000887700200048704788770020704775460A
:10074000FFF7F4FFAE4605006946534620F0070068
:10075000854618B020B5FFF7F5FDBDE820404FF005
:1007600000064FF000074FF000084FF0000B21F09B
:100770000701AC46ACE8C009ACE8C009ACE8C00968
:10078000ACE8C0098D46704710B50446AFF3008051
:100790002046BDE81040FFF760BD00000149182069
:1007A000ABBEFEE726000200464910B54A6822F4B7
:1007B00040324A604A6843681A434A6001684A689E
:1007C00022F480724A6001684A68036942EA03229F
:1007D0004A6001684A6822F040724A6001684A68CB
:1007E00083681A434A6001688A6822F400628A605A
:1007F00001688A68C3681A438A60816A6FF0706210
:10080000D14201688A6822F070628A6001688A6851
:100810000CD0836A1A438A6001688A6822F04052C9
:100820008A6001688A68C36A1A4301E022F0405274
:100830008A6001688A6822F002028A6001688A6818
:10084000037E42EA43028A6090F820100029016882
:100850004A680FD042F400624A6001684A6822F494
:1008600060424A6001684A68174C436A04EB4333AC
:100870001A4301E022F400624A600168CA6A22F465
:100880007002CA620168CA6A838B104C04EB03537E
:100890001A43CA6201688A6822F400728A60016899
:1008A0008A6890F8303042EA43228A6001688A6898
:1008B00022F480628A6001688A68406942EA802086
:1008C000886010BD0023014000E0FFFF0000F0FF42
:1008D00007F020BC07F0B4BCFFF746BDF0EE400ABD
:1008E000F5EEC00AF1EE10FA02DDB0EE600A7047D4
:1008F000B1EE600AFBE70000002803D09FED020A7A
:1009000080ED000A7047000000000000002803D0BE
:10091000B3EE060A80ED000A7047000070B52DEDB9
:100920000C8B84B006460C4615469FED990AF0EEF6
:10093000408A9FED970AB0EE409A9FED950AF0EE3F
:1009400040BA9FED930AF0EE409A9FED910AB0EE07
:1009500040AA0EB104B11DB904B0BDEC0C8B70BD42
:100960008C48FFF7C9FF8C48FFF7D0FF8A48D0EDCD
:10097000000A9FED8A1A60EE810AB0EE600A00F06C
:1009800025F9F0EE408A28EEA80AF0EE408A824867
:10099000D0ED000AB0EE001A60EE810A9FED7F1ADA
:1009A00060EE810AB0EE600A00F010F9B0EE409AF5
:1009B00029EE090AB0EE409ADFED790AB7EE000A97
:1009C00000EEA80ADFED770A00EEC90ADFED760A2D
:1009D00020EE200A754880ED000A6E4890ED000A6E
:1009E000DFED730A80EE201AB7EE000A31EE000A3E
:1009F00020EE000A6D48D0ED000A80EE801A6D48A6
:100A000080ED001A94ED000AB5EEC00AF1EE10FA7E
:100A10000DD194ED010AB5EEC00AF1EE10FA06D13F
:100A200094ED020AB5EEC00AF1EE10FA46D09FED41
:100A3000580AB0EE408A0020019002900390D4ED55
:100A4000000A60EEA00A94ED011AD4ED011A41EEFD
:100A5000210A94ED021AD4ED021A41EE210AB0EEF9
:100A6000600A00F0A9F8B0EE408A94ED000A20EE8A
:100A7000080A8DED010A94ED010A20EE080A8DEDB9
:100A8000020A94ED020A20EE080A8DED030ADDED5C
:100A9000010AF1EE600AB0EE600AFFF719FFF0EE0E
:100AA000409A9DED031AF0EE410A9DED021AB0EE58
:100AB000410AFFF70FFFB0EE40AA07E09FED340AAE
:100AC000F0EE409A9FED320AB0EE40AA95ED000A92
:100AD000B5EEC00AF1EE10FA0DD195ED010AB5EEB2
:100AE000C00AF1EE10FA06D195ED020AB5EEC00A81
:100AF000F1EE10FA3CD0B0EE690A00F067F8B0EE03
:100B0000408AB0EE690AFFF7E7FEB0EE40DAB0EED9
:100B10004A0A00F05BF8F0EE40AAB0EE4A0AFFF78E
:100B2000DBFEB0EE40BA28EE2A0AD5ED010A20EE2F
:100B3000200AD5ED000A0DEE200A68EE0B0A95EDAD
:100B4000021A00EE810AB0EE40CA95ED010A20EECD
:100B50000B0AD5ED020A0AEEE00AF0EE40CAF0EE0A
:100B60006C0AB0EE4C0AFFF7B5FEF0EE40BA03E0B7
:100B70009FED070AF0EE40BAB0EE4A1AF0EE690AAD
:100B8000B0EE6B0A304607F093FE00BFE4E60000CB
:100B900000000000700100207401002035FA8E3C36
:100BA000C1BFAD3B9DF8C5362F7C1C4178010020AC
:100BB000506CC24A7C01002010B507F097FCB7EEDC
:100BC000001AC1EE000AB0EE600A10BDFFF708BCC3
:100BD0002DE9F0412DED028B9AB00546B0EE408A2A
:100BE0000E461746984600201790189019901490BA
:100BF000159016904DB146B13FB1B8F1000F04D039
:100C0000B5EEC08AF1EE10FA05D100201AB0BDECA5
:100C1000028BBDE8F08196ED000A8DED170A96ED86
:100C2000010A8DED180A96ED020A8DED190A97ED6D
:100C3000000A8DED140A97ED010A8DED150A97ED66
:100C4000020A8DED160A17AA14A9284607F082FC9D
:100C5000402104A8FFF713FD0020009001900290AE
:100C60000390002417A904A809F072F800BF30E02F
:100C700004A800EB041090ED000AD5ED000A20EE68
:100C8000200A04A800EB0410D0ED010A95ED011A2A
:100C900000EE810A04A800EB0410D0ED020A95EDE5
:100CA000021A00EE810A04A800EB0410D0ED030A3A
:100CB00095ED031A00EE810A20EE080AF0EE000A14
:100CC00080EE201A684600EB840080ED001A601C5C
:100CD000C4B2042CCCDB002410E005EB840090EDC2
:100CE000000A684600EB8400D0ED000A30EE200ACE
:100CF00005EB840080ED000A601CC4B2042CECDB20
:100D0000284608F083FF012080E70000012210211F
:100D1000014801F015BA0000000002400022102135
:100D2000014801F00DBA00000000024070470000C9
:100D300001221146014801F003BA000000040240FC
:100D400000220121014801F0FBB90000000402402B
:100D500030B5437804781B021BB2234300EE103AEF
:100D60001B4CB8EEC00AD4ED000A20EE200A81ED3B
:100D7000000AC37885781B021BB22B4300EE103AA1
:100D8000D4ED000AB8EEC00A20EE200A81ED010A77
:100D9000437904791B021BB2234300EE103AB8EEEC
:100DA000C00A20EE200ADFED0B0A81ED020A017A6B
:100DB000C3790904807941EA0321014300EE101A46
:100DC000B8EE400A20EE200A82ED000A30BD000095
:100DD0004401002000401C42704708F072BA08F03D
:100DE00025B9000010B542780378120212B21A43F6
:100DF00000EE102A124BB8EEC00AD3ED010A20EE25
:100E0000200A81ED000AC2788478120212B22243CD
:100E100000EE102AD3ED010AB8EEC00A20EE200A37
:100E200081ED010A42790079120212B2024300EE0A
:100E3000102AB8EEC00A20EE200A81ED020A10BD89
:100E40004401002010B5FFF771FFFFF7C5FF07F061
:100E500079FE08B1802402E007F0E0FD044608F0C6
:100E60003FF810B144F0400010BD07F0CBFF204325
:100E700010BD00002DE9FC410746002016460D4636
:100E800000900190FFF74AFF922000F0BDF8062283
:100E90006946122000F09AF8FFF738FF9DF801002C
:100EA0009DF80010000200B2084300EE100A464C04
:100EB000B8EEC00AD4ED000A20EE200A85ED000A43
:100EC0009DF803009DF80210000200B2084300EEF6
:100ED000100AD4ED000AB8EEC00A20EE200A85ED13
:100EE000010A9DF805009DF80410000200B20843B5
:100EF00000EE100AB8EEC00A20EE200A85ED020AC4
:100F0000FFF71EFF08226946002000F05FF8FFF798
:100F10000FFF9DF800000F2830D19DF803009DF8C9
:100F20000210000200B2084300EE100AD4ED010ADC
:100F3000B8EEC00A20EE200A87ED000A9DF80500F1
:100F40009DF80410000200B2084300EE100AD4ED30
:100F5000010AB8EEC00A20EE200A87ED010A9DF8CA
:100F600007009DF80610000200B2084300EE100AC8
:100F7000B8EEC00A20EE200A87ED020AFFF7CEFE87
:100F8000A22000F041F802226946222000F01EF85B
:100F9000FFF7BCFE9DF800009DF80110C00040EA7C
:100FA0005110B0F5806F01DBA0F5006000EE100A73
:100FB000B4EE001AF8EEC00AB3EE070A00EE810A9A
:100FC00086ED000ABDE8FC814401002070B514469E
:100FD0000D4640F0800000F017F806E0552000F0C4
:100FE00013F8641E05F8010BE4B2002CF6D170BDB5
:100FF00010B50C4640F0800000F006F8552000F0D7
:1010000003F8207010BD000001B582B04FF47A7073
:101010000090012301AA02A9024802F065FC9DF894
:1010200004000EBD940A002002784078D20042EA03
:101030005010B0F5806F01DBA0F5006000EE100AE3
:10104000B4EE001AF8EEC00AB3EE070A00EE810A09
:1010500081ED000A704710B50C46FFF7D5FF20461A
:10106000BDE81040FFF7D0BFFEE70000014800F0E8
:10107000A4BB0000B8080020014800F09EBB00009F
:10108000E0080020124A10B5506800011ED5114B2F
:10109000114C586B01684FF00060A14202D90E4913
:1010A0004C3905E00A4CB834A14203D90A495039F9
:1010B000086006E0064C5834A14201D9D06000E037
:1010C00090601868016841F40071016010BD000073
:1010D000006002405C09002058640240014800F0B2
:1010E000D5BD0000040F00202DE9F05FAB48AC4BEC
:1010F000AC4CC06CAA4DAB4EA94F0068A849DFF8B4
:10110000A492DFF89CA2DFF89CB2DFF894E2A54A33
:10111000483B603418351836303F09F178090AF138
:10112000300A4FF4006C0BF1300BAEF1180E884210
:1011300023D99B49543926E0A84233D14FF02008E7
:101140000AE0504535D1E04606E000BF4FF40018F4
:1011500002E000BF4FF0006811EA080F7CD0904910
:10116000884253D9904205D0984203D0A04201D082
:10117000A8422FD14FF0200C45E08A49A83188427F
:1011800003D987495839096805E0864948318842BA
:101190008549F8D949689042D0D09842CED0A04233
:1011A000CCD0C9E7B042CED0B842CCD04845CAD0A6
:1011B000C7E75845CAD07045C8D0DFF8E88108F1C4
:1011C00090084045C2D0DFF8D88108F14808404572
:1011D000C0D1BBE7B04216D0B84214D0484512D0B7
:1011E000504510D0584509D0704507D06D49903111
:1011F000884203D06A494831884202D14FF4001C2A
:1012000001E04FF0006C66484C382AE06549A8318F
:10121000884229D9904205D0984203D0A04201D0FB
:10122000A84202D14FF0200C19E0B04217D0B842CA
:1012300015D0484513D0504511D0584509D07045B8
:1012400007D058499031884203D0554948318842E7
:1012500003D14FF4001C02E09DE04FF0006C5048B9
:101260005038C0F800C052E04E494831884227D972
:10127000904205D0984203D0A04201D0A84202D1AA
:101280004FF0200C18E0B04216D0B84214D04845B8
:1012900012D0504510D0584509D0704507D041496B
:1012A0009031884203D03E494831884202D14FF400
:1012B000001C01E04FF0006C3B48C0F80CC026E079
:1012C000904205D0984203D0A04201D0A84202D15A
:1012D0004FF0200C18E0B04216D0B84214D0484568
:1012E00012D0504510D0584509D0704507D02D492F
:1012F0009031884203D02A494831884202D14FF4C4
:10130000001C01E04FF0006C2748C0F808C0274CD3
:10131000207880070CD5207820F0020020702078FB
:1013200040F00400207001221146214800F008FF1F
:101330006078204D80070CD5607820F00200607046
:10134000607840F00400607001221021284600F00F
:10135000F7FEA07880070CD5A07820F00200A070DE
:10136000A07840F00400A07001221021284600F06F
:10137000E7FE06F047FC207840070CD5207820F0E7
:1013800004002070207840F0080020700A480168AE
:1013900041F001010160BDE8F09F0000940A0020C7
:1013A0005864024010600240006002409C0000202F
:1013B0000004024000000240103C0140014800F0DF
:1013C00065BC0000640F0020014800F05FBC000015
:1013D000440E002001681823CAB2103AB2FBF3F29F
:1013E000054B6FF30901032A9B5CC36500D9091DF6
:1013F00081650846704700006CAE000810B50146D4
:1014000000208B698A6A4FF0C07453B1B3F5005F56
:1014100015D072B1012A0CD0022A0AD0032A09D1B0
:1014200004E01AB1012A06D0022A03D1C96AC9010F
:1014300000D5012010BDC96AA142FAD010BD002A12
:10144000F7D0012AF2D0022AF3D0032AF3D010BD3C
:101450007047012000F090BD082000F08DBD1020E5
:1014600000F08ABD202000F087BD704778B50024C9
:10147000009490F83C20012A19D0012280F83C20E9
:101480000A6807230568092A13D9EE680A3A02EBAD
:10149000420293409E43EE600B788A680A3B03EB5E
:1014A00043039A400368DD682A43DA6010E00220B3
:1014B00078BD2E6902EB420293409E432E610B7869
:1014C0008A6803EB43039A4003681D692A431A6143
:1014D0004A681F23072A13D205686E6B521E02EB5F
:1014E000820293409E436E630B790A885B1E92B220
:1014F00003EB83039A4003685D6B2A435A6327E03A
:1015000005680D2A12D22E6BD21F02EB8202934085
:101510009E432E630B790A88DB1F92B203EB830391
:101520009A4003681D6B2A431A6311E0EE6A0D3A74
:1015300002EB820293409E43EE620B790A880D3BD8
:1015400092B203EB83039A400368DD6A2A43DA62AE
:10155000164B0568144A9D4206D10D68122D03D121
:10156000556845F48005556005689D4218D10B68A3
:10157000102B01D0112B13D1536843F40003536097
:10158000096810290CD10A490A4A0968B1FBF2F12D
:1015900001EB8101490000E0491E00910029FBD1C7
:1015A00080F83C40002078BD00230140002001402D
:1015B0001C00002040420F0070B504004FF00005F1
:1015C00003D0206C002610B107E0012070BD20463A
:1015D00000F01CF8666484F83C60206CC00610D4EF
:1015E000206C20F4885040F0020020642046FFF771
:1015F000DBF86664206C20F0020040F001002064FB
:1016000000E0012584F83C60284670BD10B586B026
:10161000044614216846FFF732F8174B2268002170
:1016200016489A4209D1016841F48071016000684E
:1016300000F48070059006B010BD114B9A42FAD1AB
:10164000026842F480620260006800F480600590E5
:101650000A481438026842F020020260006800F074
:1016600020000590181500900320CDE9010169467E
:10167000044800F08DFCDEE70020014044380240C1
:10168000002201400014024090F82020012A07D0D7
:10169000022A05D0416A41F480214162012070474D
:1016A000006842690A4342610020704710B590F813
:1016B0002020012A07D0022A05D0416A41F4802166
:1016C0004162012010BD3B48D0F8002242F00102E7
:1016D000C0F80022D0F8002222F47C52C0F8002288
:1016E000D0F800224B6A42EA0322C0F800220A7DA9
:1016F00002F01F0301229A40D0F81C329343C0F835
:101700001C32CB69B3B9D0F80C329343C0F80C3219
:101710008C894B6864F31F434C6900EBC404C4F824
:1017200040320C890B6864F31F434C6900EBC4041E
:10173000C4F84432CB69012B16D1D0F80C321343D4
:10174000C0F80C320C884B6864F31F434C6900EB03
:10175000C404C4F840320C89CB6864F31F434C695D
:1017600000EBC404C4F844328B69002BD0F8043277
:101770000ED01343C0F804320B69002BD0F814329A
:1017800008D01343C0F81432096A012904D008E0D4
:101790009343EFE79343F5E7D0F81C121143C0F8E9
:1017A0001C12D0F8001221F00101C0F80012002034
:1017B00010BD00000064004070472DE9F05F054651
:1017C000006800244669D0F804908768D0F80CB00F
:1017D000D0F810A0D0F81880F10748D0F90714D03D
:1017E00001218160B80703D5284600F022FA0CE0F9
:1017F000780702D54FF4006407E0380702D54FF4AC
:10180000805402E0284600F013FAF80516D529683E
:101810004FF480708860B80503D5284600F00BFAB5
:101820000CE0780502D544F4005407E0380502D5F1
:1018300044F4804402E0284600F0FCF9F80316D591
:1018400029684FF480308860B80303D5284600F03B
:10185000F4F90CE0780302D544F4004407E03803BF
:1018600002D544F4803402E0284600F0E5F9300760
:1018700007D55FEACB6004D52968102044F40074D2
:10188000C86070074FF0080707D55FEA0B7004D5F2
:101890002868C760284600F099F9B00706D528687F
:1018A000C068800702D0284600F091F9700607D57D
:1018B0005FEACA6004D52968102044F48064086196
:1018C000B00607D55FEA0A7004D528680761284684
:1018D00000F07EF9F00606D528680069800702D07E
:1018E000284600F076F9B00308D55FEAC96005D54F
:1018F000296810204860284600F06CF9F00307D5ED
:101900005FEA097004D528684760284600F096F918
:10191000300446D55FEA497040D5F00504D55FEA4A
:10192000C87001D044F00104B00504D55FEA8870A6
:1019300001D544F00204700504D55FEA487001D572
:1019400044F00404300529D518F0700F26D008F0B3
:101950007000402815D006DC102809D020280AD0B5
:10196000302816D10AE050280ED0602811D10EE0A0
:1019700044F008040DE044F010040AE044F02004B0
:1019800007E044F0400404E044F0800401E044F443
:1019900080742868816921F07001816129680420C0
:1019A0004860002C05D0686A204368622846FFF72B
:1019B00003FFBDE8F09F70B5040003D094F8200049
:1019C00010B104E0012070BD204600F081F82068CD
:1019D000016821F00201016000F0B8FB0546052610
:1019E00004E000F0B3FB401B0A2811D820684068CF
:1019F0008007F6D42068016841F00101016000F021
:101A0000A5FB05460BE000F0A1FB401B0A2806D908
:101A1000606A40F40030606284F82060D2E7206899
:101A20004068C007EFD0207E0128206801683DD0C3
:101A300021F080010160607E01282068016838D0B3
:101A400021F040010160A07E01282068016833D0A8
:101A500021F020010160E07E0128206801682ED07D
:101A600041F010010160207F01282068016829D021
:101A700021F008010160607F01282068016824D0FE
:101A800021F004010160D4E902010843D4E9041201
:101A9000114308436168491E08432168C86100205A
:101AA0006062012084F82000002070BD41F08001B8
:101AB000C0E741F04001C5E741F02001CAE721F04D
:101AC0001001CFE741F00801D4E741F00401D9E764
:101AD000F0B587B0044614216846FEF7D0FD364BBA
:101AE0003648DFF8D0E01968D4F800C0334A03253F
:101AF0000226092710300024491CF44522D1196020
:101B0000012907D1016841F000710160006800F00F
:101B100000700590106840F0080010601068CDE972
:101B2000005600F00800CDE9047069462448CDE96C
:101B3000024500F02DFA00220621142000F072FE6A
:101B4000142032E0DFF87CE0F44530D1D0F800C05A
:101B50004CF0806CC0F800C0D0F800C001290CF037
:101B6000806CCDF814C0196007D1016841F0007194
:101B70000160006800F000700590106840F00200FD
:101B80001060106802AB00F0020005906020CDE903
:101B9000000683E8B00069460B4800F0F9F900221E
:101BA0000621402000F03EFE402000F02DFE07B050
:101BB000F0BD000000640040040000203038024006
:101BC000000C02400068004000040240704770476B
:101BD000704770477047000070B5044690F82000C9
:101BE000012804D0606A40F40020606218E00220FE
:101BF00084F820002068016821F00101016000F0F4
:101C0000A5FA05460EE000BF00F0A0FA401B0A2826
:101C100008D9606A40F400306062052084F8200032
:101C2000012070BD20684068C007EDD1606270BDC2
:101C3000704770477047704770477047704710B5DE
:101C4000040002D0607910B106E0012010BD002030
:101C50002071204600F006F80220607101206071BA
:101C6000002010BD08B500680649884208D1064822
:101C7000016841F480510160006800F480500090D8
:101C800008BD000000300240303802402DE9F84322
:101C900004464FF00009CDF8009063484FF4165108
:101CA000A56D0068B0FBF1F72E6894F85C10082071
:101CB00000FA01F131420FD021680A6852070BD5B2
:101CC0000A6822F004020A6094F85C108840A86058
:101CD000606D40F00100606594F85C104FF0010801
:101CE00008FA01F0304208D021684969090604D594
:101CF000A860606D40F00200606594F85C100420FC
:101D00008840304208D021680968890704D5A86056
:101D1000606D40F00400606594F85C10102088400D
:101D2000304218D021680968090714D5A8602068D6
:101D30000168490304D50068000308D5A16C07E0D9
:101D40000168C90503D4016821F008010160216C14
:101D500009B12046884794F85C1020208840304222
:101D600031D021680968C9062DD5A86094F83500DE
:101D700005282068016806D0490347D5006800039C
:101D80001DD4616C1CE021F01601016020684169DE
:101D900021F080014161206C08B9A06C20B120685D
:101DA000016821F00801016094F85C103F20884030
:101DB000A86084F8349084F83580216D1FE0E16BD1
:101DC00009B120468847606D00282BD0606DC007A0
:101DD00014D0052084F835002068016821F0010145
:101DE00001600098401C0090B84203D82068006849
:101DF000C007F6D184F8349084F83580E16C00296E
:101E000010D001B02046BDE8F04308470168C9057D
:101E1000D5D4016821F01001016084F8349084F871
:101E20003580CCE7BDE8F8831C0000202DE9F041A7
:101E3000044600F08BF906465CB1002584F8345066
:101E4000022084F835002068016821F0010101605A
:101E50000DE00120BDE8F08100F078F9801B052835
:101E600005D920206065032084F83500F2E720685A
:101E70000068C007F0D12268116820480140D4E909
:101E800001031843D4E90336334318436369184305
:101E9000A3691843E3691843236A18430843616A36
:101EA000042903D1D4E90B131943084310602068B7
:101EB0004069666A20F0070130460E430127042876
:101EC0000CD1A06A0643E06A40B12046FFF796FABB
:101ED00020B14020606584F83570BAE7206846611B
:101EE0002046FFF777FA94F85C203F21914081600B
:101EF000656584F835700020ACE700003F8010F085
:101F000010B51B4C10281AD0202821D008282AD020
:101F1000012813D108F0D2FD01280FD004F10C01E3
:101F2000206908F031F9E068002807D011494FF026
:101F300080500860BFF34F8FBFF36F8F10BD607884
:101F400040F001006070A07840F00100A07003E054
:101F5000207840F00100207020790028EED0BDE804
:101F6000104005F04FBEE07840F00100E07010BD79
:101F70009C00002004ED00E0044910B50A6802420C
:101F800002D00860FFF7BCFF10BD0000143C014008
:101F90002DE9F84FDFF87CB100224FF001084FF037
:101FA000030A4FF00F090BF1040E00BF0B6808FA8B
:101FB00002F42340A3426ED14D68022D01D0122DB0
:101FC0000ED1D50800EB850CDCF820505607F70E33
:101FD00009FA07F6B5430E69BE402E43CCF82060DF
:101FE000066855000F790AFA05FC07F0030726EA90
:101FF0000C06AF40374307604E68012E05D0022E15
:1020000003D0112E01D0122E0ED18668CF6826EA99
:102010000C06AF40374387604668A6430C79C4F38B
:102020000014944034434460C6688C6826EA0C0669
:10203000AC403443C4604C68E40065D5364C256838
:1020400045F480452560246822F0030504F48044AB
:102050000094324C2E19D6F8084895072F0F09FA2C
:1020600007F5AC432E4DA84201D1002524E02D4DAB
:10207000A84201D101251FE02B4DA84201D1022524
:102080001AE02A4DA84201D1032515E0284DA842A7
:1020900002D1042510E037E0264DA84201D10525E4
:1020A0000AE0254DA84201D1062505E0234DA842AE
:1020B00001D1072500E00825BD402543C6F8085892
:1020C000DBF800405D464E689C43F60300D51C4398
:1020D0002C60DEF8004075464E689C43B60300D580
:1020E0001C432C600B4D08352C684E689C43F6024F
:1020F00000D51C432C60074D0C352C684E689C4362
:10210000B60200D51C432C60521C102AFFF44EAFBF
:10211000BDE8F88F003C01404438024000300140E7
:10212000000002400004024000080240000C02408F
:10213000001002400014024000180240001C02403F
:102140000AB1816170470904FBE70000014880681B
:10215000704700001000002070B504001BD094F8F8
:102160003D00002520B984F83C50204600F042FA9A
:10217000242084F83D002068016821F001010160FD
:1021800001F042F84D4A6168914201D84C4900E0A3
:102190004C49884201D2012070BD4B492368B0FBF5
:1021A000F1F15E6826F03F060E435E60636893427D
:1021B00006D94FF4967359434FF47A73B1FBF3F198
:1021C0002368491C1E6A26F03F0631431962616884
:1021D000914210D84900401EB0FBF1F2521CC2F3EC
:1021E0000B02042A01D2042022E0B0FBF1F0401CD3
:1021F000C0F30B001CE0A368F3B301EBC10202EBD8
:102200000116421EB2FBF6F2521C42F48042120545
:1022100049D093B301EBC10202EB0111401EB0FBA8
:10222000F1F0401CC0F30B0040F4804040F400404B
:102230002168CA694CF6FF739A431043C861D4E918
:102240000701084321680A6822F0C00210430860B1
:10225000D4E9030101432068826848F2FF339A43BE
:1022600011438160D4E9050108432168CA6822F05E
:10227000FF021043C86001E00EE016E0206801682C
:1022800041F0010101602564202084F83D002563B0
:1022900084F83E50002070BD01EB4106421EB2FBA7
:1022A000F6F2521CB3E70120C2E701EB4101401EE8
:1022B000B0FBF1F0401CC0F30B00B7E7A0860100B3
:1022C00080841E0000093D0040420F002DE9FF4FB1
:1022D00083B09A46DDE9119793460446DDF84080C5
:1022E000FFF734FF054694F83D00202870D11923EC
:1022F000012271492046009502F09EF80028F5D190
:1023000094F83C00012863D0012084F83C00206848
:102310000168C90703D1016841F00101016020682B
:10232000016821F400610160222084F83D00402012
:1023300084F83E0000262664C4F82480A4F82A907D
:10234000608D20855D48E062CDE9007553465A46B0
:102350002046049901F08CFF00287CD1208DD0B15B
:10236000012821D00228206824D04169806900908A
:10237000208D032869D801282BD0514902283B46DB
:102380004FF00002009559D08846204602F054F8DC
:10239000002860D13CE020684169816900910168B2
:1023A00041F40071016077E02068016821F48061E8
:1023B0000160F0E7016821F4806101602068016834
:1023C00041F400610160206841698069009063E028
:1023D0006FE02A463946204602F0ADF898BB2068E7
:1023E0000069616A08704EE02068016841F400717C
:1023F000016020680069616A0870606A401C606260
:10240000218D491E2185618D491E6185216838E035
:102410002068016821F48061016020680069616AB8
:102420000870606A401C6062208D401E2085608DAF
:10243000401E60853B46002241460095204601F043
:10244000FBFF00B9D0E706E0FFE72A463946204601
:1024500002F071F818B1012007B0BDE8F08F2068D4
:102460000069616A0870606A401C6062218D491EC3
:102470002185618D491E618521684A69D2435207D1
:102480000AD409690170606A401C6062208D401E98
:102490002085608D401E6085208D00287FF468AF08
:1024A000202084F83D0084F83E6084F83C600020E1
:1024B000D2E70220D0E70000020010000000FFFF7A
:1024C000040001002DE9FF4F83B09A46DDE9119722
:1024D00093460446DDF84080FFF738FE054694F841
:1024E0003D0020287FD11923012240492046009534
:1024F00001F0A2FF002876D194F83C00012872D0A8
:10250000012084F83C0020680168C90703D10168F4
:1025100041F0010101602068016821F4006101605F
:10252000212084F83D00402084F83E0000262664E7
:10253000C4F82480A4F82A90608D20852C48E0629D
:10254000CDE9007553465A462046049901F004FF30
:1025500070B930E02A463946204602F01FF858B1DB
:10256000206C042804D12068016841F400710160E6
:10257000012007B0BDE8F08F606A2168007808612B
:10258000606A401C6062218D491E89B22185628D7E
:10259000521E628522685369DB435B070BD469B125
:1025A00000781061606A401C6062208D401E2085AA
:1025B000608D401E6085208D0028CBD12A4639468B
:1025C000204601F013FF0028CAD154F83D0B0168E2
:1025D00041F400710160202004F81E09E677667757
:1025E0000020C6E7FFE70220C3E70000020010005A
:1025F0000000FFFF2DE9F04387B00746142168462D
:10260000FEF73DF8484C474B3A68002646481221F1
:10261000032510344FF001084FF004099A4218D1F5
:10262000026842F002020260006800F002000590B9
:1026300028028DE80301CDE9035969463B48FFF7BD
:10264000A7FC206840F400102060206800F400100F
:1026500065E0374B9A4234D1026842F020020260B2
:102660000068CDE9005100F02000CDE90490CDE9EB
:10267000028569462F48FFF78BFC206840F48000F4
:10268000206020682D4C00F4800005902A482060CE
:102690004FF0606060604020C4E902060001C4E9B8
:1026A0000406C001A661C4E9076020466662FFF720
:1026B000BDFB08B1FEF7D9FE7C63A76307B0BDE898
:1026C000F0831F4B9A42F9D1026842F00402026083
:1026D000026802F004020592026842F00102026000
:1026E00000680E4600F00100059058158DE8410184
:1026F000CDE9035969461348FFF74AFC4FF480704F
:102700008DE84101CDE9035969460F48FFF740FCC8
:10271000206840F400002060206800F4000005906C
:10272000CCE7000000540040303802400004024072
:102730000058004000140240B8600240040A002023
:10274000005C00400008024000000240024881682E
:102750000278114481607047100000200B4810B5CA
:10276000016841F400710160016841F48061016019
:10277000016841F480710160032000F073F80F20BC
:1027800000F006F800F024F8002010BD003C0240E4
:1027900070B50D4D04464FF47A712878B1FBF0F016
:1027A0000A490968B1FBF0F001F08FF948B9102C23
:1027B00007D200222146501E00F034F800206C6041
:1027C00070BD012070BD0000100000201C00002022
:1027D0000C4882B0016841F480410160006800F457
:1027E000804000900748001F016841F0805101605F
:1027F0000068002200F0805000900F21901E02B06F
:1028000000F010B844380240002809DB00F01F0235
:10281000012191404009800000F1E020C0F8001142
:1028200070470000F0B40E4B1B680C46C3F3022344
:10283000C3F10705042D00D90425191D072901D26C
:10284000002300E0DB1E012606FA05F1491E2140A7
:1028500099409E40761E16403143F0BC05F049BCBD
:102860000CED00E0064900F0070208684FF6FF0390
:10287000184040EA0220034A1043086070470000F5
:102880000CED00E00000FA057047D0F8040404F0F5
:10289000E7BBC1EBC10200EB8202D0F80404926CEA
:1028A00004F03ABBC1EBC10200EB8202D0F8040491
:1028B000D2F8082204F093BBD0F8040404F0D2BB91
:1028C00070B5044601F00F006268904201D9012002
:1028D00070BD0B0601F00F01C1EBC10104EB8101DA
:1028E0004FF001024FF0000503D581F83D203C3147
:1028F00003E081F8FD5101F5FE718D70087094F8C8
:10290000BC03012808D084F8BC23206804F038FFF9
:1029100084F8BC53002070BD022070BD2DE9F04149
:1029200004460F0601F00F00C0EBC00104EB81016B
:102930004FF001064FF0000503D581F83D603C31B2
:1029400003E081F8FD5101F5FE7108708A60CB70DB
:102950004A7802B1C880022B00D10D7194F8BC03F3
:10296000012809D084F8BC63206804F0F7FD2846EC
:1029700084F8BC53BDE8F0810220FBE770B50C463B
:1029800001F00F05C5EBC50100EB8101C1F8103264
:10299000C1F808220023C1F8143281F8FD3181F812
:1029A000FC51036901F5FE71012B00D10A61220778
:1029B000027C006803D004F03BFF002070BD04F0EF
:1029C00027FEFAE770B504460D4601F00F00616876
:1029D000884201D9012070BD29064FF000064FF052
:1029E000010207D5C0EBC00104EB810181F83D2055
:1029F0003C3107E0C5EBC50104EB810181F8FD61C5
:102A000001F5FE718A70087094F8BC03012807D0A4
:102A100084F8BC23206804F0DFFE280702D007E01A
:102A2000022070BD217C04F57172206804F07CFEE8
:102A300084F8BC63002070BD70B50C4601F00F0532
:102A4000C5EBC50100EB81010B658A6400234B6572
:102A5000012381F83D3001F83C5F0369012B00D16F
:102A60000A612207027C006803D004F0E1FE002026
:102A700070BD04F0CDFDFAE72DE9FC5F0568044662
:102A8000284604F0E8FF00287ED1206805F00FF802
:102A9000002879D0206805F00AF8800704D520685E
:102AA000416901F002014161206805F000F801036D
:102AB00004F571704FF0010A4FF0080B009075D5C6
:102AC0000026206804F0D2FF0746DFF808946BE088
:102AD000F80767D0F1B2206804F0E1FF8046C00734
:102AE00007D005EB4611C1F808AB3146204602F08D
:102AF000C5FA5FEA087032D52068016C00EB461019
:102B00000191D0F8081B2269012A019A0FD0F24BDB
:102B10009A4214D1090403D54FF40041C0F8081BB0
:102B2000204600F015FA206901280FD013E04A452D
:102B300005D9090403D54FF40041C0F8081B20460D
:102B400000F006FA01984845EDD804E0206801211C
:102B5000009A04F0E9FD05EB4611C1F808BB5FEAF5
:102B6000C86004D505EB46111020C1F8080B5FEAD8
:102B700088600ED52069012804D120680121009ABF
:102B800004F0D2FD202100E0A1E105EB4610C0F8E1
:102B9000081B5FEA884005D505EB46104FF400514D
:102BA000C0F8081B7F08761C002F91D1206804F024
:102BB0007EFF40034FF000095FD5206804F04FFF0F
:102BC0000746002657E0F80753D0F1B2206804F01A
:102BD00054FF8046C00726D006F00F020AFA02F022
:102BE000D5F834288243C5F8342805EB4610C0F8E0
:102BF00008A92069012807D1C6EBC60004EB8000B4
:102C0000D0E9112111448164F1B22046FFF741FE61
:102C10002069012807D136B9206D20B9206801212B
:102C2000009A04F081FD5FEA087003D505EB4611B8
:102C3000C1F808B95FEAC86004D505EB4611102059
:102C4000C1F808095FEA486004D505EB4610402149
:102C5000C0F808195FEA887004D505EB4610022118
:102C6000C0F808195FEA086003D53146204602F033
:102C700073FA7F08761C002FA5D1206804F017FF97
:102C8000002811DAD5F8040820F00100C5F804087E
:102C900094F8F40301282BD0204600F03DF9206879
:102CA000416901F000414161206804F000FF000526
:102CB0000BD5D5F80808C00702D0204600F050F91F
:102CC0002068416901F400614161206804F0EFFE71
:102CD000C00461D5D5F8040820F00101C5F8041836
:102CE0001021206804F098FE00214FF67F321AE090
:102CF00084F8F49300212046FFF7C6FDCFE700BF1C
:102D000005EB4110C0F80829D0F8003923F400136E
:102D1000C0F80039C0F8082BD0F8003B23F40013AA
:102D2000C0F8003B491C60688842E9D8D5F81C0807
:102D300040F00111C5F81C18206B002828460DD062
:102D4000D0F8840840F00B00C5F88408D5F8440892
:102D500040F00B012846C5F844180DE0D0F81408DF
:102D600042F22B010843C5F81408D5F8100840F0CA
:102D70000B012846C5F81018D0F8000820F4FE61B1
:102D8000C5F80018217C2068009A04F0CDFC20686A
:102D9000416901F480514161206804F088FE80049B
:102DA00015D5206804F01AFC206804F047FEE060A6
:102DB00000F024FA0146227B206804F09BFE2046A6
:102DC00000F094F82068416901F4005141612068E5
:102DD00004F06DFEC00634D52068816921F0100131
:102DE00081612F6A07F00F00C0EBC00004EB800682
:102DF000C7F3434006F5FE76022802D0062811D01C
:102E00001AE047F6F070074216D0C7F30A121746C9
:102E10002846F16804F04FFEF0683844F060B0696D
:102E2000384408E008222846009904F044FEB069BE
:102E3000C7F30A110844B0612168886940F01000A6
:102E40008861206804F033FE000707D5204600F0B3
:102E500067F82168486900F008004861206804F0BC
:102E600026FEC00208D50021204600F037F8216870
:102E7000486900F480104861206804F018FE800260
:102E800008D50021204600F02DF82168486900F49B
:102E900000104861206804F00AFE400007D5204673
:102EA000FFF7F3FC2068416901F08041416120682F
:102EB00004F0FDFD40070AD520684568680702D583
:102EC0002046FFF7F9FC2068416829434160BDE8CE
:102ED000FC9F00000A30544F0A31544FD0F80404CC
:102EE00004F0DBB8D0F8040404F0D9B870B5044697
:102EF000C068012570B1022801D0FEF7B6FA294654
:102F0000D4F8040404F01CF9D4F80404BDE87040BB
:102F100004F0DCB80025F2E7D0F8040404F0FEB8B1
:102F2000D0F8040404F000B910B5044690F8BC03CE
:102F300001280BD0012084F8BC0384F838102068E5
:102F400004F0C7FD002084F8BC0310BD022010BDB2
:102F5000D0F8042400F57171104604F0FDB80000AB
:102F600010B50446D0F8040404F02CF92068D0F819
:102F7000001E41F00101C0F8001E206A002804D0A4
:102F80000248016841F00601016010BD10ED00E04B
:102F90002DE9F843054600684FF00109C1074FF0DD
:102FA000000601D1400727D5DFF80C81C8F868601A
:102FB000FFF7CCF80746414C05E000BFFFF7C6F825
:102FC000C01B022857D820680001F7D46868810127
:102FD000287A41EA0070394984310860C8F868905D
:102FE000FFF7B4F8074604E0FFF7B0F8C01B02286B
:102FF00041D820680001F7D52878800752D52F489E
:103000004030016841F08051016000682C4C00F0B4
:1030100080500090206840F480702060FFF796F8A0
:10302000074604E0FFF792F8C01B022823D8206867
:10303000C005F7D5214C7034206810F4407020D0C2
:10304000A98901F4407181421BD020681D4920F4F8
:103050004070C1F800900E6020602068C00710D05A
:10306000FFF774F8064641F2883707E0FFF76EF87D
:10307000801BB84202D90320BDE8F883206880078E
:10308000F4D5E9680D48C1F301220830032A0BD0BA
:10309000016821F4F81101602068A989C1F30B01CE
:1030A000084320600020E7E70268074B22F4F8128B
:1030B00019400A430260EFE700004742003802402F
:1030C00000700040400E4742FFFCFF0F2DE9F04723
:1030D0000E46050065D0DFF81481D8F80000F7B27D
:1030E00000F00F00B04207D288F80070D8F8000056
:1030F00000F00F00B04254D128683D4C810712D532
:10310000400703D5206840F4E0502060287800078D
:1031100003D5206840F4604020602068A96820F052
:10312000F000084320602878C0072DD03049686837
:103130000839012812D0022813D0032811D00968B9
:10314000890700292DDA216821F00301014321605C
:10315000FEF7FCFF814641F2883A0EE009688903D8
:10316000EFE709688901ECE7FEF7F0FFA0EB090142
:10317000514502D90320BDE8F0872068696800F056
:103180000C00B0EB810FEFD1D8F80010404601F0F1
:103190000F01B14207D90770006800F00F00B0427C
:1031A00001D00120E7E72878400705D52068E968C5
:1031B00020F4E050084320602878000706D52068F6
:1031C000296920F4604040EAC100206000F03CF82A
:1031D0002168084AC1F30311515CC84006490860E0
:1031E0000F20FFF7D5FA0020C5E70000003C0240A1
:1031F0000838024074AE00081C0000200148006836
:10320000704700001C000020044805490068096858
:10321000044AC1F38221515CC84070471C00002061
:103220000838024084AE000804480549006809686F
:10323000044AC1F34231515CC84070471C00002071
:103240000838024084AE0008154810B5006810F038
:103250000C02144813D01449042A0FD0082A0ED1A6
:103260000F4C241F2268236802F03F025B0207D53F
:103270002068C0F38810A0FB010106E0084610BDDD
:103280002168C1F38811A1FB00010023FDF7E2F8DA
:103290002168C1F30141491C4900B0FBF1F010BDA8
:1032A000083802400024F400001BB7002DE9F84F55
:1032B000050076D02878DFF8F8B2BE4CC00749D0B8
:1032C000DBF800105846C1F38101012908D00068DD
:1032D000C0F3810002280AD1201D0068400206D5F3
:1032E0002068800336D568680028E2D032E068683C
:1032F000B0F5803F10D0B0F5A02F206810D020F49A
:1033000080302060206820F4802020606868A0B1B0
:10331000FEF71CFF06460CE0206840F48030F4E71E
:1033200040F480202060F7E7FEF710FF801B642840
:1033300073D820688003F7D50CE0FEF707FF064638
:1033400005E000BFFEF702FF801B6428F0D820686C
:103350008003F7D42878DFF8608280074FF00009F7
:103360003ED5DBF80010584611F00C0F09D000686C
:10337000C0F3810002280BD18D48001F0068400275
:1033800006D42068800715D5E868012809D111E026
:10339000E868B8B10120C8F80000FEF7D7FE06467D
:1033A00005E002E1FEF7D2FE801B0228C0D82068AB
:1033B0008007F7D52068296920F0F80040EAC100AD
:1033C00020600DE0C8F80090FEF7C0FE064604E05D
:1033D000FEF7BCFE801B02281FD820688007F7D4A8
:1033E0002878000722D5724E744869696C3671B12D
:1033F00001210160FEF7AAFE074604E0FEF7A6FEE3
:10340000C01B022809D830688007F7D50EE0C0F845
:103410000090FEF79BFE074605E083E0FEF796FE70
:10342000C01B02287ED830688007F7D42878400770
:1034300068D5DFF87CA100270AF1380ADAF8000025
:10344000C0000BD4DAF8001041F08051CAF8001027
:10345000DAF80000012700F080500090584E3068E4
:10346000C00510D4306840F480703060FEF76EFE06
:10347000009005E0FEF76AFE0099401A022851D834
:103480003068C005F6D54A4EA868683601280FD0C6
:103490000528306810D020F001003060306820F03E
:1034A00004003060A868B8B1FEF750FE00900FE04D
:1034B000306840F00100F4E740F004003060F7E7C6
:1034C000FEF744FE0099411A41F28830814264D8E7
:1034D00030688007F4D50EE0FEF738FE009007E074
:1034E000FEF734FE0099411A41F28830814254D8E7
:1034F00030688007F4D42FB1DAF8001021F0805141
:10350000CAF80010A869C0B3DBF80010C1F381014C
:1035100002294AD00228484607D0C8F86000FEF7C2
:1035200015FE00E039E005463AE04746C8F860007D
:10353000FEF70CFE064604E0FEF708FE801B02289C
:103540002BD820688001F7D4D5E907010843A96A80
:103550001C4A490802EB01416A6A41EA82110843A8
:1035600095F82C1040EA01611148001F016001200C
:103570003866FEF7EBFD054605E014E0FEF7E6FDD4
:10358000401B022809D820688001F7D50BE000BF56
:10359000FEF7DCFD401B022802D90320BDE8F88FAE
:1035A00020688001F4D40020F8E70120F6E700004D
:1035B000083802400038024000004742800E47426F
:1035C000007000400000FFFF70B5040003D0607978
:1035D000002510B105E0012070BD2571204600F0E6
:1035E0000DF8022060712068016841F0040101605B
:1035F00001206071A560002070BD000008B5006862
:103600000649884208D10648016841F0400101603E
:10361000006800F04000009008BD0000000806505F
:103620003438024070B5040002D0607F10B106E06B
:10363000012070BD00202077204600F049F80220CC
:1036400060772168CA20486221685320486220467A
:1036500001F002FEFF25042618BB206881681B4A82
:10366000114081602168886862681043D4E90423AE
:103670001A43104388602168E06808612068016986
:10368000228941EA024101612068C16821F080017C
:10369000C16020688068800607D4204600F024F8C6
:1036A00018B1206845626677C2E72068016C21F492
:1036B000802101642068016CA269114301642068C3
:1036C000456201206077002070BD0000BFFF8FFFC2
:1036D00000680349884202D102490120086070470E
:1036E000002800403C0E474270B504460068C1689F
:1036F00021F0A001C160FEF729FD05464FF47A765E
:1037000007E000BFFEF722FD401BB04201D90320B5
:1037100070BD2068C0688006F4D5002070BD70B50B
:10372000040005D00025A56294F8510010B106E010
:10373000012070BD84F85050204600F031F802207E
:1037400084F851002068016821F040010160D4E94B
:1037500001010843D4E90312114308436169084396
:10376000218B01F400710843E1690843216A084391
:10377000A16A084321680860A069042101EA104099
:10378000616A0843216848602068C16921F40061CA
:10379000C1616565012084F85100002070BD000002
:1037A0002DE9F04786B0054614216846FCF767FF0F
:1037B000DFF818C12968464802260127032205239D
:1037C000DFF810810024614560D141491431D1F8FE
:1037D00000C04CF4805CC1F800C0096801F480515D
:1037E0000591016841F002010160016801F00201E8
:1037F0000591016841F0010101600068914600F007
:103800000100059018209A468DE8C1066946404699
:10381000FEF7BEFB80208DE8C10669462E48FEF704
:10382000B7FB2F4E2D484FF0C0673060C6E90174DA
:103830004FF48068C6E9034874617812B461C6E940
:10384000074030467462FEF7F1FA08B1FDF70DFE4D
:10385000EE64B563224E214860361830E6E8020770
:103860004020A6E81101C00246F81449B461C6E937
:1038700007401B4874626030FEF7D8FA08B1FDF7C4
:10388000F4FDAE64B56306B0BDE8F087154CA14207
:10389000F9D10F4910310C6844F480440C60096878
:1038A00001F480410591016841F002010160006866
:1038B000694600F0020005904FF460408DE8C100B9
:1038C0004046CDE90323FEF763FBDCE7003001400F
:1038D00030380240000402400000024040640240D0
:1038E000440B0020003800402DE9F84F044690F8C2
:1038F000500000270A9E1D4692468B464FF0010954
:1039000001280ED0012084F85000FEF71FFC8046ED
:1039100094F85100616801280CD0B1F5827F07D17D
:1039200002E00220BDE8F88FA16809B9042801D09F
:103930000227C2E0BBF1000F27D0BAF1000F24D05C
:103940001DB394F85100042802D0052084F85100DA
:1039500000206065C4F838A0E587A587C4F830B0BA
:10396000E586A5862064606420680168490603D462
:10397000016841F040010160E068B0F5006F6068E7
:1039800005D0E8B3012D46D07FE0012795E008B1CE
:10399000012D39D1206B21680088C860206B801C04
:1039A0002063E08E401EE0862EE020688168890753
:1039B0000FD5E18E69B1B9F1010F0AD1216B0988E8
:1039C000C160206B801C2063E08E401EE0864FF0BB
:1039D000000920688168C9070CD0E18F51B1C06827
:1039E000A16B0880A06B801CA063E08F401EE08765
:1039F0004FF00109FEF7AAFBA0EB0800B04200E07F
:103A000009E001D3701C50D1E08E0028CDD1E08FA9
:103A10000028CAD13FE0206B216800780873206B32
:103A2000401C2063E08E401EE0862EE02068816806
:103A300089070FD5E18E69B1B9F1010F0AD1216B68
:103A400009780173206B401C2063E08E401EE086E5
:103A50004FF0000920688168C9070CD0E18F51B18F
:103A6000C068A16B0870A06B401CA063E08F401E73
:103A7000E0874FF00109FEF769FBA0EB0800B042B8
:103A800002D3701C01D010E07EB1E08E0028CDD1B1
:103A9000E08F0028CAD142463146204602F0ACFDF4
:103AA00028B101272020606507E0032705E0A06812
:103AB00018B92068C16880680090012084F851001E
:103AC000002084F8500038462CE710B5401EB0F1B5
:103AD000807F01D3012010BD4FF0E02460610F21F1
:103AE000601704F006FB0020A06107202061002081
:103AF00010BD10B590F83C20012A22D0012280F898
:103B00003C20CA688C6822F4407222434C6822F43C
:103B1000806222430C6822F4006222430C6922F482
:103B2000805222434C6922F400522243C969002387
:103B300022F480420A4301684A6480F83C30002045
:103B400010BD022010BD70B590F83C20012A19D09C
:103B5000012400F83C4F0222427050F83C3C5A6865
:103B60009D6822F070060A684968324325F0800596
:103B700029435A6050F83C2C916044700021017038
:103B8000084670BD022070BD10B5040003D094F843
:103B90003D0010B107E0012010BD002084F83C007A
:103BA000204600F00DF8022084F83D00211D206819
:103BB00002F01CFE012084F83D00002010BD000032
:103BC00008B52349026823488A4207D1016841F0B9
:103BD00001010160006800F001000AE01D491E4B70
:103BE000091F9A4207D1086840F00200086008687F
:103BF0001FE0009008BD194B9A4207D1086840F0B9
:103C000004000860086800F00400F2E7144B9A42D0
:103C100007D1086840F008000860086800F0080054
:103C2000E7E710498A4207D1016841F002010160CB
:103C3000006800F00200DCE70B498A42DAD1016833
:103C400041F400310160006800F40030D1E7000069
:103C500000000140443802400004004000080040D9
:103C6000000C0040000401400044014070B50446CF
:103C700090F83C00012817D0012584F83C50022020
:103C800084F83D002068826822F0770222F47F42A7
:103C900082600868502830D00DDC20284DD005DC2B
:103CA00098B310283BD148E0022070BD302844D0A2
:103CB000402834D139E0602828D0702806D0B0F5EB
:103CC000805F2CD0B0F5005F29D10AE0CB68D1E944
:103CD0000121206802F0EEFD2068816841F0770143
:103CE00009E0CB68D1E90121206802F0E3FD2068FA
:103CF000816841F48041816011E0CA6849682068A8
:103D000002F0ACFE5021206807E016E0CA6849685E
:103D1000206802F0B4FE6021206802F0D5FD84F82E
:103D20003D50002084F83C0070BDCA684968206896
:103D300002F094FE40212068EFE722680146104619
:103D4000EBE700002DE9F04186B0044614216846F7
:103D5000FCF795FC474A2168474802240125914217
:103D600010D1016841F0100101600068694600F05F
:103D7000100005904FF4D4408DE831003F48CDE964
:103D8000034513E03E4ADFF8FC80914213D10168FD
:103D900041F0040101600068694600F004000590EC
:103DA00090158DE83100039440460494FEF7F0F836
:103DB00006B0BDE8F081344A032691420ED1016875
:103DC00041F0080101600068694600F008000590B4
:103DD00010148DE871002D480494E7E72C4A9142B5
:103DE00010D1016841F0800101600068694600F06F
:103DF000800005904FF4E0508DE831000394254891
:103E00000494D3E7244A4027914220D1016841F429
:103E100080710160016801F480710591016841F0D1
:103E20000401016000680097CDE9014500F004003D
:103E3000CDE90460694603941848FEF7A9F8009795
:103E4000CDE90145CDE9034669464046AEE7144A4F
:103E50009142ADD1016841F02001016000680097F6
:103E6000CDE9014500F02000CDE9046069460394E6
:103E70000C489BE70000014030380240001002402F
:103E8000000400400008024000080040000C02400E
:103E9000000C0040001C02400004014000200240D1
:103EA000004401400014024070B5044690F83C0004
:103EB0000D4601280DD0012684F83C60022084F8CC
:103EC0003D0042B1042A18D0082A2AD00C2A4DD12C
:103ED00039E0022070BD206802F0FEFC2068816994
:103EE00041F0080181612068816921F0040181614C
:103EF000206881692A69114311E0206802F01CFDE5
:103F00002068816941F4006181612068816921F440
:103F100080618161206881692A6941EA02218161A9
:103F200024E0206802F03EFD2068C16941F00801EC
:103F3000C1612068C16921F00401C1612068C169C3
:103F40002A69114311E0206802F060FD2068C16910
:103F500041F40061C1612068C16921F48061C161DF
:103F60002068C1692A6941EA0221C16184F83D6083
:103F7000002084F83C0070BD10B5040003D094F814
:103F80003D0010B107E0012010BD002084F83C0086
:103F9000204600F00CF8022084F83D00211D206826
:103FA00002F024FC012084F83D00002010BD704781
:103FB00070B5040004D094F83900002510B106E073
:103FC000012070BD84F83850204600F023F82420EA
:103FD00084F839002068C16821F40051C16020468E
:103FE00002F076FD2068016921F4904101612068AA
:103FF000416921F02A0141612068C16841F4005102
:10400000C160E563202084F8390084F83A0000207C
:1040100070BD00002DE9F04F87B0044614216846BA
:10402000FCF72DFB7B48DFF8E8811438D4F800C09A
:10403000784B022701210322002506154FF0070BBC
:10404000C44549D1D3F800C04CF0100CC3F800C0EF
:104050001B6803F010030593036843F00203036039
:10406000036803F002030593036843F00103036050
:1040700000688A4600F00100059080208DE88104E8
:10408000CDE9032B9146D84669466348FDF780FF8A
:1040900070108DE88104CDE9039869465F48FDF70B
:1040A00077FF604F5E4807F1080838607004786059
:1040B000402088E861007D618002BD61C7E907504A
:1040C00038467D62FDF7B2FE08B1FDF7CEF92763F1
:1040D000BC6307B0BDE8F08FDFF84C814FF40039C6
:1040E000C4453CD14B4B1B1FD3F800C04CF4802C73
:1040F000C3F800C01B6803F480230593036843F0F2
:1041000004030360006802AB00F00400059083E83C
:1041100006084FF44060CDE9000769464348FDF7C3
:1041200037FF404F4248603738604FF00060C7E9C2
:104130000105C7E903567D61BD61C7E907593846E6
:104140007D62FDF773FE08B1FDF78FF9676300220A
:1041500004212720BC63FEF765FB272055E0DFF82C
:10416000D480C445B5D1D3F800C04CF0200CC3F8BE
:1041700000C01B6803F020030593036843F040036D
:1041800003600068CDE9021200F0400005904FF492
:104190008440CDE900070820049069462648FDF7D1
:1041A000F7FE204F1E48C037903838604FF0206827
:1041B000C7E90185C7E903567D61BD61C7E90759B4
:1041C00038467D62FDF732FE08B1FDF74EF96763B0
:1041D000BC631348194F1838E7E80208402061C74C
:1041E000800247F81459BD61C7E9075013487D6242
:1041F000FDF71CFE08B1FDF738F927630022052101
:104200004720BC63FEF70EFB4720FEF7FDFA60E790
:104210000010014044380240000402400000024007
:10422000B8640240440E00200048004000080240EC
:10423000286002400014014000180240640F002072
:10424000FEE701684A69D24352050FD46FF48062D9
:104250004A61002140F8301F2022427381730269B5
:1042600042F0040202610173012070470020704790
:104270002DE9F84F0446006889460B9D0168984671
:10428000174641F4806101602068016841F4807143
:10429000016000954FF0011A0022514620460A9B0A
:1042A00000F0CAF8002853D1216809F0FE00086127
:1042B0000AF1010B2B46594620460A9A00F0F0F805
:1042C000F0BB20684169806900902A4620460A991F
:1042D00000F064F940B1206C042839D120680168ED
:1042E00041F40071016033E0FEB2B8F1010F09D072
:1042F0002168380A08612A4620460A9900F04EF9DA
:104300000028E8D1206806612A4620460A9900F074
:1043100045F90028DFD12068016841F4807101600F
:1043200000950022514620460A9B00F085F838B9D6
:10433000216809F0FF0040F0010008612B4600E011
:1043400006E0594620460A9A00F0AAF8002800D054
:104350000120BDE8F88F00002DE9F843044600680D
:104360000D46DDE9089701689846164641F48071CC
:1043700001604B4600224FF001112046009700F0EB
:104380005BF8E0B9216805F0FE0008613B464A464B
:104390001549204600F084F888B920684169806991
:1043A00000903A464946204600F0F8F850B1206C9B
:1043B000042804D12068016841F4007101600120E3
:1043C000BDE8F883F5B2B8F1010F09D02168300AD1
:1043D00008613A464946204600F0E0F80028E6D158
:1043E000206805610020EBE70200010070B5164669
:1043F0000D4604460DE02046FFF723FF08B10120DB
:1044000070BD681C05D0FDF7A1FE801BA84207D82F
:1044100035B120684069C0434007ECD4002070BD2E
:10442000002044F8300F20216173A073216941F00E
:10443000200121612073E2E72DE9F0471E469046F6
:104440000D460446C1F30747DDF8209008E0701CD4
:1044500006D0FDF77BFEA0EB0900B0420FD876B185
:104460002068012F18D0806925EA00000004000CA4
:1044700014D000214145EAD00020BDE8F08700209B
:1044800044F8300F20216173A073216941F02001AD
:10449000216120730120F0E74069E5E70121E9E7A8
:1044A0002DE9F0479A4691460E46044600254FF006
:1044B0002008C1F3074725E020684069C043400554
:1044C00014D42068016841F40071016021686FF420
:1044D00080604861256384F83D8084F83E50206CFC
:1044E00040F00400206484F83C501FE0B9F1FF3F25
:1044F00008D0FDF72BFEA0EB0A0149450CD8B9F115
:10450000000F09D02068012F13D0806926EA00002F
:104510000004000C0BD0CFE744F8305F84F80D8026
:10452000A573206940F02000206125730120BDE8BB
:10453000F0874069EAE72DE9F041002590460E46F4
:104540000446202717E04069C043C0060CD454F845
:10455000301B6FF01000486144F810596777A57759
:10456000206A2062257717E0FDF7F0FDA0EB080038
:10457000B04208D83EB120684169C9434906E2D437
:104580000020BDE8F08144F8305F6773A5732069AF
:1045900040F02000206125730120F2E770B5164637
:1045A0000D4604460DE02046FFF74BFE08B1012002
:1045B00070BD681C05D0FDF7C9FD801BA84207D857
:1045C00035B120684069C0430006ECD4002070BDBE
:1045D000002044F8300F20216173A073216941F05D
:1045E000200121612073E2E77FB500241548009483
:1045F000019402941249039401604FF40031C0E920
:1046000001140461047680F820400F49C0E90A14BF
:104610000125C561C46080F830404561FCF7CCFFDE
:1046200008B1FCF722FF1020CDE90005694602948D
:104630000448FCF71BFF002801D0FCF716FF7FBDE4
:1046400000200140280800200100000F7FB5002451
:1046500015480094019402941249039401604FF4A8
:104660000031C0E901140461047680F820400F494C
:10467000C0E90A140125C561C46080F83040456175
:10468000FCF79AFF08B1FCF7F0FE0820CDE9000521
:10469000694602940448FCF7E9FE002801D0FCF7C3
:1046A000E4FE7FBD00220140700800200100000FE1
:1046B0000F4810B50D4901600321416000214FF4FE
:1046C00010228160C0E903124FF4001242610176AA
:1046D00041768176C17601774177FDF76CF9002844
:1046E00003D0BDE81040FCF7C0BE10BD0064004020
:1046F000B80800200F4810B50D4901600321416042
:1047000000214FF410228160C0E903124FF400121F
:104710004261017641768176C17601774177FDF776
:104720004AF9002803D0BDE81040FCF79EBE10BD3A
:1047300000680040E0080020074910B505480860FF
:104740000846FDF77CFA002803D0BDE81040FCF7CE
:104750008CBE10BD0030024008000020254808B57E
:10476000016841F480010160016801F48001009159
:10477000016841F4001101600068002200F400109B
:10478000009005210C20FEF74DF80C20FEF73CF8B8
:10479000002205212F20FEF745F82F20FEF734F8E0
:1047A000002205213920FEF73DF83920FEF72CF8CC
:1047B000002205213A20FEF735F83A20FEF724F8CA
:1047C000002205213B20FEF72DF83B20FEF71CF8C8
:1047D000002205214520FEF725F84520FEF714F8B4
:1047E000002205214620FEF71DF8BDE808404620BE
:1047F000FEF70AB83038024000B587B01C220649DF
:104800006846FBF702FF0021684604F066FD034995
:10481000086007B000BD000050AE00080000002096
:104820002DE9F04387B014216846FBF728FF68485C
:104830000025016841F002010160016801F00201F8
:104840000591016841F040010160016801F04001FB
:104850000591016841F001010160016801F0010169
:104860000591016841F008010160016801F008014B
:104870000591016841F004010160016801F0040143
:104880000591016841F480710160016801F4807153
:104890000591016841F020010160016801F02001EB
:1048A0000591016841F080010160016801F080011B
:1048B0000591016841F0100101600068454F00F06A
:1048C00010000590012240213846FDF739FCDFF841
:1048D0000881012210214046FDF732FCDFF8FC90F0
:1048E000012241F201014846FDF72AFC8020CDE972
:1048F00000050124694602943948FDF749FB402030
:10490000CDE900040294694638460394FDF740FB64
:10491000344E0920CDE90006694602943846FDF779
:1049200037FB0720CDE900052F4F69463846029531
:10493000FDF72EFBCDE90045694640460294FDF7A0
:1049400027FB1020CDE90004022569464046CDE949
:104950000245FDF71DFB3020CDE9000669460294B3
:104960003846FDF715FB2003CDE9000402946946A3
:1049700048460394FDF70CFB0094694648460194B1
:10498000CDE90245FDF704FB062100220846FDF7AC
:1049900049FF0620FDF738FF002205210920FDF719
:1049A00041FF0920FDF730FF002205210A20FDF715
:1049B00039FF0A20FDF728FF002205211720FDF707
:1049C00031FF1720FDF720FF07B0BDE8F08300009E
:1049D000303802400018024000000240000402404B
:1049E0000020024000002110000802400D4810B5D0
:1049F0000B4901600C49416000214FF48042816005
:104A0000C0E9031241618161C1610162FDF7A4FB4C
:104A1000002803D0BDE81040FCF727BD10BD000002
:104A20000054004008090020801A06000D4810B507
:104A30000B4901600C49416000214FF480428160C4
:104A4000C0E9031241618161C1610162FDF784FB2C
:104A5000002803D0BDE81040FCF707BD10BD0000E2
:104A6000005800405C090020801A06000D4810B56F
:104A70000B4901600C49416000214FF48042816084
:104A8000C0E9031241618161C1610162FDF764FB0C
:104A9000002803D0BDE81040FCF7E7BC10BD0000C3
:104AA000005C0040B0090020801A0600074910B5DC
:104AB000054808600846FEF787FD002803D0BDE8DA
:104AC0001040FCF7D2BC10BD00080650640A00205C
:104AD0000C4810B50A49016000217C22C0E901128E
:104AE00040F67F42C0E9032141618161FEF79AFDF2
:104AF000002803D0BDE81040FCF7B7BC10BD000093
:104B000000280040740A0020104810B50E490160CA
:104B10004FF482714160002102228160C0E90312DA
:104B200001224261520282613822C0E907214162BA
:104B300081620A21C162FEF7F2FD002803D0BDE8C0
:104B40001040FCF792BC10BD00300140940A0020D8
:104B5000104810B50E4901604FF482714160002188
:104B600002228160C0E90312012242615202826185
:104B70003822C0E90721416281620A21C162FEF741
:104B8000CEFD002803D0BDE81040FCF76EBC10BD80
:104B900000380040EC0A002010B588B01C2168469F
:104BA000FBF76DFD144813490024C0E9001441F2DD
:104BB0008731C0E9024104618461FEF7E5FF08B175
:104BC000FCF753FC0C48FFF7D7F908B1FCF74DFC94
:104BD0006020CDE90004029400226946064804944E
:104BE000FFF762F908B1FCF740FC0348FFF7AAF8A9
:104BF00008B010BD00440140440D002010B596B02F
:104C000000240F9410941194129413941C2168465C
:104C10001494FBF734FD202107A8FBF730FD35483D
:104C200033490160A721C0E9011444F61F61C0E9BE
:104C3000031444618461FEF7A7FF08B1FCF715FC7B
:104C40004FF480500F900FA92A48FFF70FF808B1D2
:104C5000FCF70BFC2748FFF78FF908B1FCF705FCC0
:104C6000139413A923481494FEF76DFF08B1FCF7C1
:104C7000FCFB602000904FF47A70CDE901040394AE
:104C800004940594002269461A480694FFF70CF92B
:104C900008B1FCF7EAFB042269461648FFF704F95D
:104CA00008B1FCF7E2FB082269461248FFF7FCF85E
:104CB00008B1FCF7DAFB0C2269460E48FFF7F4F85E
:104CC00008B1FCF7D2FB0794089409944FF4005004
:104CD0000A94CDE90B4007A906480E94FEF709FF98
:104CE00008B1FCF7C2FB0348FFF72CF816B010BD63
:104CF00000000140040C002010B58EB00024079481
:104D0000089409940A940B941C2168460C94FBF7B0
:104D1000B6FC1E481C49C0E9001442F2CF01C0E9AC
:104D2000024104618461FEF72FFF08B1FCF79DFB8F
:104D30004FF48050079007A91448FEF797FF08B179
:104D4000FCF793FB1148FFF717F908B1FCF78DFB4F
:104D50000B940BA90D480C94FEF7F5FE08B1FCF777
:104D600084FB6020CDE900040294082269460748CC
:104D70000494FFF799F808B1FCF777FB0348FEF7B6
:104D8000E1FF0EB010BD000000040040440C002004
:104D900010B58EB000240794089409940A940B94DB
:104DA0001C2168460C94FBF76AFC1E481C490160F4
:104DB000A721C0E901144FF6FF71C0E90314846113
:104DC000FEF7E2FE08B1FCF750FB4FF4805007906D
:104DD00007A91448FEF74AFF08B1FCF746FB114843
:104DE000FFF7CAF808B1FCF740FB0B940BA90D487C
:104DF0000C94FEF7A8FE08B1FCF737FB6020CDE964
:104E0000000402940822694606480494FFF74CF80F
:104E100008B1FCF72AFB0348FEF794FF0EB010BD63
:104E200000080040840C002010B58EB000240794C8
:104E3000089409940A940B941C2168460C94FBF77F
:104E40001EFC26482449C0E900144FF6FF71C0E952
:104E5000024104618461FEF797FE08B1FCF705FB8F
:104E60004FF48050079007A91C48FEF7FFFE08B1D9
:104E7000FCF7FBFA1948FFF77FF808B1FCF7F5FAE1
:104E80000B940BA915480C94FEF75DFE08B1FCF7D6
:104E9000ECFA6020CDE900040294002269460F4834
:104EA0000494FFF701F808B1FCF7DFFA0422694621
:104EB0000A48FEF7F9FF08B1FCF7D7FA082269465D
:104EC0000648FEF7F1FF08B1FCF7CFFA0348FEF7FA
:104ED00039FF0EB010BD0000000C0040C40C0020D3
:104EE00010B596B000240F9410941194129413945A
:104EF0001C2168461494FBF7C2FB202107A8FBF78E
:104F0000BEFB2D482B490160A721C0E9011444F6DE
:104F10001F61C0E9031444618461FEF735FE08B1E6
:104F2000FCF7A3FA4FF480500F900FA92248FEF728
:104F30009DFE08B1FCF799FA1F48FFF71DF808B16C
:104F4000FCF793FA139413A91B481494FEF7FBFD86
:104F500008B1FCF78AFA602000904FF47A70CDE92E
:104F600001040394049405940022694612480694AF
:104F7000FEF79AFF08B1FCF778FA042269460E485A
:104F8000FEF792FF08B1FCF770FA079408940994B1
:104F90004FF400500A94CDE90B4007A906480E943F
:104FA000FEF7A7FD08B1FCF760FA0348FEF7CAFE5A
:104FB00016B010BD00040140040D00200C4810B5CF
:104FC0000A4901604FF4E1314160002181600C2207
:104FD000C160C0E904128161C161FEF7E9FF0028E8
:104FE00003D0BDE81040FCF740BA10BD00100140EE
:104FF000840D00200D4810B50B4901600C4941603B
:1050000000214FF480628160C0E903120C22C0E9E4
:105010000521C161FEF7CCFF002803D0BDE8104098
:10502000FCF723BA10BD000000480040C40D00206A
:10503000A08601000C4810B50A4901604FF4E13127
:105040004160002181600C22C160C0E904128161CD
:10505000C161FEF7ADFF002803D0BDE81040FCF7AA
:1050600004BA10BD00140140040E0020FEE7704792
:105070000148FDF701BD0000C40F00202DE9F041FB
:10508000044600680E46016C00EB4615D5F8080B87
:10509000276920234FF40042012F08D02C4FB9423A
:1050A0004FD1010449D500BFC5F8082B4DE0DFF80A
:1050B000A4C05FEA007E04F5717711D5614503D97C
:1050C000000401D5C5F8082B2046FDF741FF3A46FC
:1050D0000121206802F028FB0820C5F8080B34E005
:1050E0005FEA806E02D5C5F8083B2EE010F0280F6D
:1050F0002BD1614501D90004D6D4C6EBC60004EB20
:105100008000D5F8102BD0F80412C2F312028A1ACC
:10511000C0F81422D0F808221144C0F80812F1B2E5
:105120002046FDF7BFFB86B9D4F8100268B93A46AD
:105130000121206802F0F8FA07E0800601D5C5F8E1
:10514000083BF1B22046FDF7ADFB0020BDE8F08141
:105150000A31544F0A30544F2DE9F84F0E46C1EB37
:10516000C60100EB810481460568D4E914103C3483
:10517000884202D90120BDE8F88F081AA16881424F
:1051800000D20846C01C870805EB46181BE000BF8C
:10519000A0EB010AA068504500D282460AF1030044
:1051A000870899F8100000901FFA8AF3F2B2284697
:1051B000E16802F013FDE16801EB0A00E060A1691B
:1051C00001EB0A00A061D8F8180980B2B84205D3F3
:1051D000D4E90501814201D20028D9D1D4E90501E1
:1051E000884208D806F00F0101208840D5F834180D
:1051F0008143C5F834180020BDE70000002828D0FE
:10520000002A26D0017092ED001A80ED011A92ED6D
:10521000011A80ED021A92ED021A80ED031A80ED58
:10522000040A9FED0C0AC0ED050A80ED0E0A80ED20
:105230000D0A80ED0C0A80ED080A80ED0B0A80ED66
:105240000A0A80ED090A80ED110A80ED100A80ED4E
:105250000F0A70470000000070B504460068C1687E
:10526000490614D44FF0FF31C160FCF76FFF0546CB
:105270004FF47A7607E000BFFCF768FF401BB042AE
:1052800001D9032070BD2068C0684006F4D5002015
:1052900070BD00002DE9F74FF84981B00868026839
:1052A00022F001020260F6480268136823F001034D
:1052B000136003E00A6822F001020A60EF490968FE
:1052C0000A68D207F6D103E0016821F0010101600C
:1052D000EB4800680168C907F6D1EA48EA4AEB4B97
:1052E000D0F84C90E84CE94DE74EE84FDFF898E3F2
:1052F000DFF894C3D9F80000E449483A6033183421
:105300001835303E78374FF4006A0CF1300C704598
:1053100035D9884205D0904203D0984201D0A042AE
:1053200001D1202026E0A84205D0B04203D0B842E7
:1053300001D0604501D150461CE0DFF8508308F1F0
:105340003008404511D0DFF84083A8F118084045E7
:105350000BD0DFF8388308F19008404505D0DFF81E
:10536000288308F14808404502D14FF4001001E0BD
:105370004FF00060DFF81083A8F14C083AE0DFF846
:105380000C8308F1A808404537D9884205D09042DF
:1053900003D0984201D0A04201D1202026E0A842AB
:1053A00005D0B04203D0B84201D0604501D150468B
:1053B0001CE0DFF8D88208F13008404511D0DFF852
:1053C000C882A8F1180840450BD0DFF8C08208F168
:1053D0009008404505D0DFF8B08208F14808404504
:1053E00002D14FF4001001E04FF00060DFF8988226
:1053F000A8F15008C8F8000074E0DFF8908208F1C6
:105400004808404537D9884205D0904203D0984299
:1054100001D0A04201D1202026E0A84205D0B04210
:1054200003D0B84201D0604501D150461CE0DFF8FE
:105430005C8208F13008404511D0DFF84C82A8F1B9
:10544000180840450BD0DFF8448208F19008404529
:1054500005D0DFF8348208F14808404502D14FF406
:10546000001001E04FF00060DFF82082A8F1100882
:10547000C8F80C0036E0884205D0904203D098422C
:1054800001D0A04201D1202026E0A84205D0B042A0
:1054900003D0B84201D0604501D150461CE0DFF88E
:1054A000EC8108F13008404511D0DFF8DC81A8F12B
:1054B000180840450BD0DFF8D48108F1900840452A
:1054C00005D0DFF8C48108F14808404502D14FF407
:1054D000001001E04FF00060DFF8B081A8F1100883
:1054E000C8F80800D9F800004FF4806B704535D932
:1054F000884205D0904203D0984201D0A04201D109
:10550000102026E0A84205D0B04203D0B84201D016
:10551000604501D158461CE0DFF8708108F1300881
:10552000404511D0DFF86081A8F1180840450BD044
:10553000DFF8588108F19008404505D0DFF8488130
:1055400008F14808404502D14FF4801001E04FF0C7
:105550008060DFF83481A8F14C083AE0DFF82C8154
:1055600008F1A808404537D9884205D0904203D0B9
:10557000984201D0A04201D1102026E0A84205D0D7
:10558000B04203D0B84201D0604501D158461CE07A
:10559000DFF8F88008F13008404511D0DFF8E880E6
:1055A000A8F1180840450BD0DFF8E08008F190081A
:1055B000404505D0DFF8D08008F14808404502D1C9
:1055C0004FF4801001E04FF08060DFF8BC80A8F15C
:1055D0005008C8F800007AE0DFF8B08008F1480809
:1055E000404537D9884205D0904203D0984201D037
:1055F000A04201D1102026E0A84205D0B04203D03D
:10560000B84201D0604501D158461CE0DFF87C80EB
:1056100008F13008404511D0DFF86C80A8F1180877
:1056200040450BD0DFF8648008F19008404505D074
:10563000DFF8548008F14808404502D14FF480104B
:1056400001E04FF08060DFF84480A8F11008C8F84E
:105650000C003CE0884205D0904203D0984201D033
:10566000A04201D110202CE0A84205D0B04203D0C6
:10567000B84201D060450BD1584622E0440B0020CF
:10568000A40B0020940A00205864024010600240DD
:10569000DFF8688940450FD0DFF8648940450BD0BA
:1056A000DFF8588908F16008404505D0DFF85089D7
:1056B00008F16008404502D14FF4801001E04FF03E
:1056C0008060DFF83889A8F14008C8F80800D9F8E8
:1056D0000000704532D9884205D0904203D09842EC
:1056E00001D0A04201D1082023E0A84205D0B04259
:1056F00003D0B84201D0604502D14FF4007018E0E9
:10570000DFF8F88840450FD0DFF8F48840450BD02B
:10571000DFF8E88808F16008404505D0DFF8E08848
:1057200008F16008404502D14FF4002001E04FF03D
:105730000070DFF8CC88A8F1340837E0DFF8BC88C7
:1057400008F17808404534D9884205D0904203D00A
:10575000984201D0A04201D1082023E0A84205D000
:10576000B04203D0B84201D0604502D14FF400707E
:1057700018E0DFF8888840450FD0DFF8848840457E
:105780000BD0DFF8788808F16008404505D0DFF8D5
:10579000708808F16008404502D14FF4002001E014
:1057A0004FF00070DFF85888A8F13808C8F80000FA
:1057B0006EE0DFF8488808F11808404534D988427F
:1057C00005D0904203D0984201D0A04201D10820D8
:1057D00023E0A84205D0B04203D0B84201D06045D2
:1057E00002D14FF4007018E0DFF8108840450FD068
:1057F000DFF80C8840450BD0DFF8008808F160081E
:10580000404505D0DFF8F88708F16008404502D12F
:105810004FF4002001E04FF00070DFF8E087A8F1BE
:105820004008C8F80C0033E0884205D0904203D00D
:10583000984201D0A04201D1082023E0A84205D01F
:10584000B04203D0B84201D0604502D14FF400709D
:1058500018E0DFF8A88740450FD0DFF8A48740455F
:105860000BD0DFF8988708F16008404505D0DFF8D5
:10587000908708F16008404502D14FF4002001E014
:105880004FF00070DFF87487A8F14008C8F80800EE
:10589000DFF86C87D9F8000008F118084FF4807E13
:1058A000404531D9884205D0904203D0984201D07A
:1058B000A04201D1042022E0A84205D0B04203D08A
:1058C000B84201D0604501D1704618E0DFF82C875E
:1058D00040450FD0DFF8288740450BD0DFF81C8704
:1058E00008F16008404505D0DFF8148708F160082A
:1058F000404502D14FF4802001E04FF08070DFF886
:105900000087A8F1340836E0DFF8F08608F178085F
:10591000404533D9884205D0904203D0984201D007
:10592000A04201D1042022E0A84205D0B04203D019
:10593000B84201D0604501D1704618E0DFF8BC865E
:1059400040450FD0DFF8B88640450BD0DFF8AC8675
:1059500008F16008404505D0DFF8A48608F160082A
:10596000404502D14FF4802001E04FF08070DFF815
:105970009086A8F13808C8F800006CE0DFF87C8653
:1059800008F11808404533D9884205D0904203D029
:10599000984201D0A04201D1042022E0A84205D0C3
:1059A000B04203D0B84201D0604501D1704618E042
:1059B000DFF8488640450FD0DFF8448640450BD0DD
:1059C000DFF8388608F16008404505D0DFF83086FA
:1059D00008F16008404502D14FF4802001E04FF00B
:1059E0008070DFF81886A8F14008C8F80C0032E093
:1059F000884205D0904203D0984201D0A04201D104
:105A0000042022E0A84205D0B04203D0B84201D021
:105A1000604501D1704618E0DFF8E08540450FD0C1
:105A2000DFF8DC8540450BD0DFF8D08508F1600851
:105A3000404505D0DFF8C88508F16008404502D12F
:105A40004FF4802001E04FF08070DFF8B085A8F1BE
:105A50004008C8F80800DFF8A885D9F8000008F168
:105A600018084FF48039404530D9884205D090421B
:105A700003D0984201D0A04201D1012021E0A842E8
:105A800005D0B04203D0B84201D0604501D14020DA
:105A900017E0DFF8688540450FD0DFF864854045A2
:105AA0000BD0DFF8588508F16008404505D0DFF8D5
:105AB000508508F16008404501D1484601E04FF4A7
:105AC0008000DFF83C85A8F1340835E0DFF82C854C
:105AD00008F17808404532D9884205D0904203D079
